:1010000040340020512600001DA100003D260000B4
:101010003D2600003D2600003D26000000000000A7
:10102000000000000000000000000000C9270000D0
:101030003D26000000000000652700003D2600005E
:101040008D2900008D2900008D2900008D290000C8
:101050008D2900008D2900008D2900008D290000B8
:101060008D2900008D2900008D2900008D290000A8
:101070008D2900008D2900008D2900008D29000098
:101080008D2900008D2900008D2900008D29000088
:101090008D2900008D2900008D2900008D29000078
:1010A0008D2900008D2900008D2900008D29000068
:1010B0008D2900008D2900008D2900008D29000058
:1010C0008D2900008D2900008D2900008D29000048
:1010D0008D2900008D2900008D2900008D29000038
:1010E0008D2900008D2900008D2900008D29000028
:1010F0008D2900008D2900008D2900008D29000018
:101100007BB972B90029BEBF00204FF0004106E054
:1011100008BF00281CBF6FF000414FF0FF3000F007
:1011200057B8ADF1080C6DE904CE002909DB002B9E
:101130001ADB00F059F8DDF804E0DDE9022304B021
:101140007047404261EB4101002B1BDB00F04CF883
:10115000DDF804E0DDE9022304B0404261EB410127
:10116000524263EB43037047524263EB430300F088
:101170003BF8DDF804E0DDE9022304B0404261EB16
:1011800041017047524263EB430300F02DF8DDF854
:1011900004E0DDE9022304B0524263EB43037047ED
:1011A00053B94AB9002908BF00281CBF4FF0FF31CE
:1011B0004FF0FF3000F00CB8ADF1080C6DE904CE33
:1011C00000F012F8DDF804E0DDE9022304B0704716
:1011D000704700BF10F8012B11F8013B012A28BF0E
:1011E0009A42F7D0D01A70472DE9F04786468C46D0
:1011F0000846089E154674461946002B40F0C280EA
:101200008542B2FA82F245D94AB1C2F1200300FA0E
:1012100002FC2EFA03F3954043EA0C0C94404FEA8B
:10122000154EA8B2BCFBFEF8230C0EFB18CC08FB35
:1012300000F943EA0C43994528D9EB1808F1FF3728
:1012400004D2994502D9A8F102072B44A3EB090364
:10125000A4B2B3FBFEFC0EFB1C330CFB00F044EA13
:101260000344A04214D92C190CF1FF3304D2A0423C
:1012700002D9ACF102032C44241A43EA07401EB100
:10128000D440002334607360BDE8F0874746DDE753
:101290006346F1E792BB431B01214FEA154EAFB203
:1012A000B3FBFEFC200C0EFB1C330CFB07F840EAE2
:1012B0000343984562D9EB180CF1FF3004D29845EE
:1012C00002D9ACF102002B44A3EB0803A4B2B3FB98
:1012D000FEFC0EFB1C330CFB07F744EA0344A74259
:1012E0004ED92C190CF1FF3304D2A74202D9ACF12C
:1012F00002032C44E41B43EA0040C0E7C2F1200390
:1013000020FA03F1954090402EFA03F303434FEA8D
:10131000154EAFB2B1FBFEFC0EFB1C10190C0CFB02
:1013200007F841EA0041884504FA02F422D9691815
:101330000CF1FF3004D2884502D9ACF102002944F7
:10134000A1EB08019BB2B1FBFEFC0EFB1C110CFBD8
:1013500007F743EA01439F420ED9EB180CF1FF3126
:1013600004D29F4202D9ACF102012B44DB1B41EABB
:10137000004192E76046E3E76146F7E76046A3E78E
:101380006346B7E7834206D916B9002108467BE7D2
:10139000C6E900E0F9E7B3FA83F78FB9834201D3D6
:1013A000724508D8BEEB020460EB030301209C46A3
:1013B0001EB9002168E73846FAE7C6E9004CF8E7AD
:1013C000C7F1200CBB4022FA0CF41C432EFA0CF19E
:1013D00020FA0CF3B84001434FEA14490EFA07F51E
:1013E000B3FBF9F81FFA84FE09FB18300B0C08FB5D
:1013F0000EFA43EA00439A4502FA07F240D9E3188D
:1014000008F1FF3004D29A4502D9A8F10200234422
:10141000A3EB0A0389B2B3FBF9F809FB183308FB05
:101420000EFE41EA03418E452CD9611808F1FF33C5
:1014300004D28E4502D9A8F10203214443EA0040B8
:10144000A0FB0298A1EB0E014145CE46434602D3D4
:1014500006D14D4504D2B9EB020E68EB0403013806
:10146000002EA6D0B5EB0E0261EB030101FA0CFCD5
:1014700022FA07F34CEA0303F940C6E9003198E782
:101480004046C5E74346D9E7036803F01F025B09FE
:10149000026004D0012B034818BF002070474FF0B2
:1014A000A0407047000300504FF0A043D3F8102530
:1014B000D3F8101882F4806382F40070C3F38023A1
:1014C000C0F34020CA439B0043EA400302F00102FC
:1014D0001343042BDABF024AD05C0420704700BFDC
:1014E000FAE0000037B5044601A815460191FFF760
:1014F000CBFF019B00EB83001A4BD0F80027134071
:1015000043F00303C0F800370DB3084608F045FA6E
:10151000A30003F1804303F5C0432D05D3F8102544
:1015200022F4991222F4F852C3F81025D3F81025AA
:1015300045EA0125154345F44035C3F81055D3F865
:10154000102542F00302C3F8102503B030BD01A8F6
:101550000191FFF799FF019A01239340C0F80C35E0
:10156000D6E700BFF0F8FCFF38B5104B104CC018A0
:1015700065EB0505A0FB040104FB051140F2DC52FC
:101580000023FFF7BDFD4FF4EB74A0FB0405094AEF
:10159000002304FB0151FFF7B3FD40F6B83320EA06
:1015A000E0709842A8BF184638BD00BF24FAFFFF7C
:1015B00040420F0020A107002DE9F04FA1B00AF032
:1015C000C8FF0390FFF770FF1022002180460BA890
:1015D0000CF012F9102200210FA80CF00DF9904B1D
:1015E0000FCB13AC84E80F008E4B4FF400421A80EF
:1015F00000275A8000219A8017A8DA8010220CF068
:10160000FBF8B946BA463E4602973C4614220021F2
:101610001BA80CF0F1F80DF11E031D9302231E937D
:10162000814D09AB04934FF0000B6B7953B12B79CB
:10163000012202FA03F31C932B7C8DF87C306B7C27
:101640008DF87D30286883681BA95B689847014640
:1016500068B1764808F089FB754808F086FB0021E0
:1016600021200BF02AFFD1E74FF0010BDDE76B796A
:10167000BDF91E10002B4BD0EB796B4A042B0ABF2F
:101680002B68B5F80EC09B684FF0140000FB0B20D0
:1016900008BFB3F808C0807A2B7C820648BF03F1EC
:1016A000FF330CFB01F148BFDBB20891A879059329
:1016B00008A903F0C9FC014650BB059B08981841D6
:1016C000049B43F8040B14350493BBF1000FCBD0FB
:1016D0000491FFF7E9FE8045049905461CD14FF0BF
:1016E000A043D3F810359B040CD50AF032FF039BBE
:1016F000029A0390E41A099B1A440A9B02921F441F
:1017000001360444042000210BF0D7FEA8467DE7F3
:10171000484808F02AFB9FE76EB120AB03EB88082E
:10172000029B0291B3FBF6F3B7FBF6F648F8543C84
:1017300048F8446C0F46002D62D13F4E129B019336
:10174000A4FB0664F60B119B009346EA4446DDE9D0
:101750000F23314639480DF15C0808F006FB0424DC
:101760000BA943461A6851F8040B013C024443F8A4
:10177000042BF7D1324BB2449A4509F101094DD9F6
:1017800013AEA24640F2012B56F8042B58F8043B46
:10179000B3FBF9F3A2F2DC52134440F2DB52934262
:1017A00030D840F2DC5346F8043C56F8040CFFF7FE
:1017B000DBFE00282DDB40F6B83398422BDC40F2EC
:1017C000DC5C0021C0FB0BC140F6B8320023604650
:1017D000FFF7E6FC584508BF4FF400706FEA404041
:1017E000104B6FEA504080B223F81A000AF1010A48
:1017F0000023BAF1040F48F8043CC5D199469A4633
:1018000000266CE742F22832934288BF42F2283326
:10181000C9E70020E2E74FF40070DFE726465EE705
:1018200050DD00004817002068DD00002AE00000BD
:1018300052E0000040E0000040420F0063E0000082
:101840003F420F002DE9F04FD84C8BB000264FF0EF
:10185000010854F8060C0BF054FB88B91423D44A41
:10186000D4487343D358196808F07FFAD24808F077
:101870007CFA4FF0FF300BB0BDE8F08F0126E8E7AF
:1018800014F8013C53B154F8060C836821461B68D8
:101890009847054628B1C9482946E5E76FF0850510
:1018A000F9E71434002EE9D001222021FFF71AFEB7
:1018B000012210460921C24EC24FC34CDFF80CB3BF
:1018C000DFF80CA3FFF70EFE01220A210220FFF72A
:1018D00009FE2A460D210320FFF704FEC6F8048006
:1018E000C6F80C80D6F80435DFF8E8C223F003030D
:1018F000C6F80435D6F808354FF004094FF0FF322A
:1019000043F00303C6F80835C6F81095C6F8082357
:10191000C7F80480C7F80C80D7F8043523F0030318
:10192000C7F80435D7F8083543F00303C7F808357E
:10193000A94BC7F81095C7F80823A84AC4F8103572
:101940004B44C4F814250220C4F80485C4F81835A3
:10195000C4F81C254A44C4F81429C4F80405C4F882
:1019600020B5C4F824254A44C4F81829C4F80495BD
:10197000C4F828A5C4F82C250822C4F80425984AE0
:10198000C4F83025A2F58242343A1020C4F8342538
:10199000C4F804059348C4F838052020C4F83C2551
:1019A000C4F80405C4F840C54FF0400CC4F8442501
:1019B000C4F804C5DFF830C2C4F848C54FF0800C45
:1019C000C4F84C25C4F804C54FF4807CC4F85035E5
:1019D0004FF4007EC4F85425C4F804C54FF4806C5D
:1019E000C4F858B5C4F85C25C4F804E5C4F860A58B
:1019F000C4F86425C4F804C5DFF8F0C1C4F868C5AC
:101A0000C4F86C254FF40062C4F80425C4F870C50E
:101A1000ACF5803CACF5A27CC4F874C54FF4805C96
:101A2000C4F804C507F0B9FF092007F0B6FF0A2083
:101A300007F0B3FF09A80991FFF726FD0999664B46
:101A400008FA01F1C0F80C1540F2D171C6F8048013
:101A5000C6F80C80C7F80480C7F80C80C6F840515F
:101A6000C6F84451C6F84851C6F84C51C6F8505112
:101A7000C7F84051C7F84451C7F84851C7F84C510E
:101A8000C6F84085C6F8441540F6A171C6F8481559
:101A900041F27171C6F84C1541F64171C6F8501506
:101AA000D6F80012C6F80052D6F8001241F0100124
:101AB000C6F8001240F2AB51C7F8401540F67B5112
:101AC000C7F8441541F24B51C7F8481541F621417A
:101AD000C7F84C154649C7F800804FF4007E4FF414
:101AE000807C0F20C6F80080C1F80480C1F80C5536
:101AF000C1F808E5C1F80455C1F810C5C1F8600582
:101B00004FF00040C1F86405C1F86805C1F86C05E4
:101B10003848C1F80085C1F82005C1F82495C1F8FE
:101B20002855C1F82C55C1F81455C4F8783508313A
:101B30004B44C4F87C15C4F8803503F5F6530C33D8
:101B4000C4F88435C4F888B5C4F88C35C4F890A5B9
:101B5000C4F894354FF40053C4F804354FF480436F
:101B6000C4F804354FF40043C4F804354FF480330F
:101B7000C4F80435002000210523CDE90601CDE994
:101B80000253CDE900551C4B1C491D4804954FF4E8
:101B9000006206F01DFC1B4C204608F0E6F8002110
:101BA0004FF400400BF089FCF6E700BF6EDD00004B
:101BB00068DD000077E00000A4E0000089E000009C
:101BC00000A0014000A0004000F0014048A10140F9
:101BD0004CA1014048A1004040A1014000600040EC
:101BE00040A1004044A100404CA1004050A1014050
:101BF00000C0014048170020B9150000C0170020A0
:101C0000B0060020BFE00000014B1B68184700BF72
:101C100070010020014B1860704700BF7001002068
:101C200030B585B004460D461022002168460BF001
:101C3000E3FD02238DF802302A46044B019321462E
:101C4000684607F04DFC05B030BD00BF091C000020
:101C500080B505460E461746984606F07DFE0346BB
:101C60000BF046FEDFF81890044649F80030424673
:101C700030463946A84754F8090000F05DFD00BF22
:101C8000080000002DE9F047058B04462807904620
:101C900011D4022905F0070540F0CC80204608F059
:101CA0008CF878B10138218B042811D8DFE800F0D6
:101CB000C2106D85950001290CBF45F0100545F057
:101CC0002005258388F31188BFF36F8FBDE8F08767
:101CD00001F0070AAA4500F0A5800027B9463E4654
:101CE000A368002B00F0BC8041F00801218388F339
:101CF0001188BFF36F8FA168002900F0BA800D68CA
:101D0000002900F0B680D1F80480334652462046C0
:101D1000C047002D76D02B6829461D46F0E701F01C
:101D200007035A1F012A1BD8002221F00701062BA6
:101D3000276889B2C4E9002209D13B4603E0628BDF
:101D4000013262831B68002BF9D141F0020121832B
:101D5000204608F032F800287AD041F0200176E0E1
:101D6000042B0AD121F0070189B22183204608F013
:101D700024F810B141F020012183218B01F0070AE2
:101D8000AA454FD00027B946AAE7236921F00701E9
:101D900041F00601062DD3F8009021832DD1B9F131
:101DA000000F3FD041F00801218388F31188BFF371
:101DB0006F8F3A492046C84729E021F0070123697F
:101DC00041F0040189B2042DD3F804902183E6D0B8
:101DD00000273E464FF0040A82E721F007012369FD
:101DE00041F0050189B2052DD3F808902183D6D0A2
:101DF00000273E464FF0050A72E700273E464FF0A7
:101E0000060A6DE72B4687E7B9F1000FD1D1EFF352
:101E10001188202383F31288BFF36F8F238B23F065
:101E200008032383258BEA062ED525F01003238390
:101E300005F007056669218B002EBFF670AF002301
:101E40002768C4E9003321F0070141F00101218333
:101E5000218B01F0070AAA454FF000097FF440AF3B
:101E6000002F9CD041F00801218388F31188BFF333
:101E70006F8F002FC8D03D68394633465246204602
:101E800007F0C7FF2F46F4E7AB067FF51BAF25F041
:101E90002003238305F0070500E700BF3F9E0000F5
:101EA000014B03600020704790DD000007B51B491F
:101EB0001B4808F0C6FA70BB1A49194808F0C1FA65
:101EC00048BB1949164808F0BCFA20BB174914480A
:101ED00008F0B7FAF8B90146154A114808F07AFD3A
:101EE000C8B9024613490E48012308F04EFE90B9C6
:101EF00001230093014602230948EF2208F0C2F9AA
:101F000048B9074808F0E7F928B9054803B05DF873
:101F100004EB08F00FBA03B05DF804FBE801002001
:101F20001C060020D0010020B8010020A0010020E4
:101F300074010020FFE0000008B5044807F015FF19
:101F4000BDE80840024807F010BF00BF4FE10000A5
:101F500084E10000014807F01BB900BF90DD0000DC
:101F600038B5044618B90F4B0F485B68984761684D
:101F7000B1F5683F10D0B1F5680F0DD00B4DA942F7
:101F80000AD011F46861206807D0014608480BF0B8
:101F90005CF800232360656038BD14220BF02CFC34
:101FA000F9E700BF64040020B2E100002C5F5CA9E7
:101FB0005011002008B520B34368B3F5683F10D135
:101FC00001220368BFF35B8F53E8001F002903D190
:101FD00043E800200028F7D1BFF35B8F0DD100202C
:101FE00008BD094A93420AD000684FF0FF324FF013
:101FF000FF3305F02BFE0028F1D00448F0E7044839
:10200000EEE76FF4E040EBE72C5F5CA9E98FFFFFA0
:10201000EA8FFFFF08B5D8B14368B3F5683F10D128
:1020200000220368BFF35B8F53E8001F012903D12F
:1020300043E800200028F7D1BFF35B8F0BD10020CD
:1020400008BD074A934208D0006805F077FEF6E71E
:102050006FF4E040F4E70348F2E70348F0E700BF1D
:102060002C5F5CA9E98FFFFFEA8FFFFF10B50446E4
:1020700018B91D4B1D485B6898476368B3F5683F06
:102080002FD0B3F5680F2CD0194A934219D1236889
:1020900003BB18484FF0FF324FF0FF33214605F0E5
:1020A000D9FC08B923681BB90F4B13485B689847E4
:1020B0002068142200210BF09FFB4FF468636360DB
:1020C00008E0B3F5683F0DD83A2B03D040F6BA626A
:1020D0009342DED120680BF017F8636843F03A03AF
:1020E000636010BD054AF3E764040020B2E100001C
:1020F0002C5F5CA950110020D8E100003A00003AA2
:1021000008B506490648402314220AF090FFBDE8AE
:1021100008400449044807F0ADB800BF500C002047
:102120005011002098DD0000ACDD000008B5034828
:10213000034A0021121A07F0E9FF08BDB00600208B
:10214000881700200748084A084908B5121A07F0FE
:10215000DFFF0748074A0849BDE80840121A07F0A0
:10216000D7BF00BF00000020B006002054E70000E9
:10217000000000200000002054E7000038B50546AC
:102180000C4699B1D1E901230F48096807F0EDFD2C
:10219000D4E90423E1680D4807F0E7FDE1690C4844
:1021A00007F0E3FDA1690B4807F0DFFD012D05D124
:1021B000EFF305810848103907F0D7FD214628467E
:1021C000BDE8384005F0E0BA05E2000035E2000065
:1021D00065E2000075E20000A4E2000030BFFFF7F6
:1021E000FDBF00BF2DE9F0410B4EDFF8308006EB5C
:1021F0000807CC1B05463246094920460BF0EEFA8B
:10220000A01942460021083C0BF0F6FAC5F8B4408C
:1022100007F10800BDE8F0810000000008000000A0
:1022200044DD0000054B5A699B689A421FBF044A6F
:10223000536843F080535360704700BF3815002047
:1022400000ED00E02DE9F843324D804632488946E2
:10225000174607F08AFDAB6ADE0622D52F4807F045
:1022600084FD1124AB6A1D0703D52D4807F07DFDC1
:102270001224284DAB6A980715D52A4807F075FD3A
:102280006E6BAB6A190642D52748314607F06DFDE3
:10229000B9F1000F03D0AB6A23F08003AB621324C3
:1022A00003E01024DEE76FF015061A4DAB6ADA077B
:1022B00003D51E4807F059FD1424AB6A9B0603D5CD
:1022C0001B4807F052FD1524124B9A6AD50602D41A
:1022D0009A6A90070AD55B68190507D541463046CA
:1022E00000F00AFB10B180F309880224094B9A6AB6
:1022F000920642BF5A6A22F400525A629A6A42F027
:10230000FF029A6200233B702046BDE8F8836FF01D
:102310001506C4E700ED00E0B8E20000CFE20000DF
:1023200003E3000017E3000030E3000047E3000090
:1023300067E3000010B51D4C1D4807F016FDA36AA9
:10234000990130D51B4807F010FD1E20A36ADA0161
:1023500003D5194807F009FD1F20144CA36A1B037D
:1023600003D5164807F001FD2120A36A590303D5C0
:10237000134807F0FAFC22200C4CA36A9A0303D5F9
:10238000104807F0F2FC2320A36ADB0303D50E48B4
:1023900007F0EBFC2420054A936A6FEA03436FEAD7
:1023A0001343936210BD1D20D0E700BF00ED00E095
:1023B00097E30000B0E30000C4E30000DFE30000A7
:1023C000FEE3000024E400003FE4000070B5244C6C
:1023D000064624480D4607F0C8FCA36AD90435D543
:1023E000214807F0C2FC1720A36A1A0503D51F482D
:1023F00007F0BBFC18201A4CA36A9B050FD51C489C
:1024000007F0B3FCA16BA36A180407D5194807F0BD
:10241000ACFC1EB1A36A23F40043A3621920104C44
:10242000A36A590503D5144807F09FFC1A20A36A34
:10243000DA050DD5114807F098FC1B20084A936A6D
:1024400043F47F43936200232B7070BD1620CBE7CB
:10245000A36A9B04F2D50A4807F087FC1C20EDE72D
:1024600000ED00E06BE4000082E4000003E3000004
:1024700094E40000AEE40000C4E40000E0E40000E6
:1024800067E300002DE9F0415B4B5F688AB00446CA
:10249000C7F30806002585F31188BFF36F8F02F09C
:1024A0007F43B3F17F4F06D102F00C03082B13D109
:1024B000524807F05AFC00252C464FF00008F31E46
:1024C0008DF80780092B00F28680DFE803F00A7A96
:1024D0007E7684848484848210074CBF0C46012558
:1024E000EBE74748444E07F040FC8DF80780F36A5D
:1024F0009A0704D5434807F038FC002330E0F36A1C
:10250000002B01DA4048F6E7F36A5B00F5D53F4857
:1025100007F02BFC7369A26943F480737361BFF306
:102520004F8FBFF36F8F736932F8022C23F48073DF
:102530007361BFF34F8FBFF36F8F4DF602739A42F3
:1025400009D0B36ADBB253B30DF107020121204673
:10255000FFF778FE33E021682D4807F006FC23687A
:102560009DF80720C2B902AE04F120072068616817
:10257000324603C20834BC421646F7D1099AB5B3B5
:10258000C2F3080121B96FEA52226FEA422209928E
:1025900002A91846FFF7F2FD0AB0BDE8F081B36A60
:1025A00013F47F4F05D00DF107010120FFF70EFF57
:1025B00005E0B36AB3F5803F9FD3FFF7BBFE034648
:1025C000CEE70DF107020021C1E70DF10701002060
:1025D000ECE710488FE7104B1049114817F4F87FCB
:1025E000A6F1100218BF194607F0BFFB85E722F4D9
:1025F000FF7222F00102CAE700ED00E027E50000CB
:1026000053E500006BE500008DE500009CE500004F
:10261000BCE50000D9E500000EE50000F9E400008B
:10262000FEE50000044B5A6942F010025A615A69F3
:1026300022F008025A61704700ED00E0EFF30880D5
:10264000EFF3098101B57246FFF71CFF01BD00BF22
:10265000002080F31488BFF36F8F114880F308883F
:1026600000201049087003F0E7FE00200E490860C2
:10267000BFF34F8F00F02EF8202080F311880B4815
:102680004FF40461401880F30988EFF314800221AD
:10269000084380F31488BFF36F8F00F0FDF800004B
:1026A000403400208417002094ED00E080260020B4
:1026B0000749D1F890200023C2F30722184693421D
:1026C00000DB7047C1F89830C1F8A0000133F6E78D
:1026D00000ED00E008B572B6002383F31388FFF71E
:1026E000E7FF144B4FF0FF32C3F88020C3F884207B
:1026F000C3F88820C3F88C20C3F89020C3F8942036
:10270000C3F89820C3F89C20C3F88021C3F8842123
:10271000C3F88821C3F88C21C3F89021C3F8942111
:10272000C3F89821C3F89C2162B6BFF34F8FBFF363
:102730006F8F08BD00E100E0084B9B6883420BD11E
:10274000EFF3058343B1064B5A6842F080525A605A
:102750005A6A22F400425A6206F004B93815002081
:1027600000ED00E015498A684FF030001044EFF3A7
:10277000098C80E8F01F202080F31288BFF36F8F50
:102780000F4F4FF000664A698A603E60D2F8B4008D
:102790000C4C2060D2F8B8000023C2F8B83080F3A7
:1027A000118804B5104600F00FF9BDE8044002F1AD
:1027B000300090E8F01F8CF309887047381500202E
:1027C00004ED00E06C1100201EF0040F0CBFEFF3CD
:1027D0000880EFF30980816911F8021C0229FFD0FB
:1027E00001B5724607F096FC01BD00BF40B200285B
:1027F00007DB044A4109012300F01F00834042F82F
:102800002130704700E100E040B200280CDB4309B2
:10281000064900F01F0020330122824041F82320A6
:10282000BFF34F8FBFF36F8F704700BF00E100E031
:10283000054B420900F01F0053F82220012303FA40
:1028400000F01040704700BF00E100E040B20028F7
:10285000A8BF00F1604001F10101B8BF064B4FEA8B
:102860004111ACBF00F5614000F00F00C9B2B4BF28
:10287000195480F80013704714ED00E0044B054A2A
:1028800023F07F039360BFF34F8FBFF36F8F7047C9
:102890000010000000ED00E008B5FFF7EFFF074A69
:1028A000D2F8883023F47003C2F88830FFF73EFC7A
:1028B000FFF748FC00F05EF805F032F800ED00E0AC
:1028C00042F8203C009B42F81C3C0A49019B42F81C
:1028D000183C029B42F8143C21F001014FF0807338
:1028E00042F8043C42F8081C0023203A0265C0F874
:1028F000B8307047511C00000A4A0346906878B10E
:1029000013F1160FD0F8A40005D0A0F140029A42AE
:1029100005D8834203D2814228BF0020704700209F
:10292000704700BF3815002008B515460C4A0D4BFE
:102930009060D0F8B4201A600E4600F045F82C469E
:1029400086F309880020044B984720460021002286
:102950000023024C2047000039A10000511C000058
:10296000381500206C110020014B10221A617047AD
:1029700000ED00E0044800232021C2180133302B71
:1029800082F80013F9D1704700E100E008B5EFF3D9
:102990000583064A103B02EBC30152F83300496835
:1029A0008847BDE80840FFF73DBC00BFA4DA00003F
:1029B000024B034A0348012100F078B800000420CC
:1029C00000000020BCDD0000D0F8A420054B403AF8
:1029D0001A60054A4021C3E901121846012100F09E
:1029E0006FB800BF7011002000000B15084AC2F834
:1029F00098000B6823F01F03034343F01003C2F851
:102A00009C308B6843F00103C2F8A030704700BFD0
:102A100000ED00E02DE9F043DFF8608085B00E4660
:102A20001F4604464FF00009B14523DA6068D8B16B
:102A30003FB1411E08421BD11F2819D923681942F2
:102A400016D12368019307F09AFBA368034303930D
:102A5000D8F89050C5F30725D0B2013DA84207D859
:102A600001A9FFF7C3FF421C09F101090C34DBE7A0
:102A70006FF01502104605B0BDE8F08300ED00E0F0
:102A8000044B0522C3F89420BFF34F8FBFF36F8F21
:102A9000704700BF00ED00E0BFF35F8F024B0022E4
:102AA000C3F89420704700BF00ED00E010B5034C60
:102AB00001232278FFF7AEFF207010BD58170020C9
:102AC00008B50B4A00231278FFF7A4FF10F1160F88
:102AD00007D0084A0021D2F89030C3F30723984268
:102AE00000DB08BDC2F89800C2F8A0100130F2E780
:102AF0005817002000ED00E02DE9F043534B544CF3
:102B0000D3F890302568C3F307239D4285B000F2C7
:102B10009A80FFF7C1FF00200C2685421AD14D4C48
:102B20004D4F25706846FFF7BBF9DFF82081DFF8CD
:102B30002C9106460025AE4213D12378434900204C
:102B4000D1F89020C2F30722934276DBFFF798FF7B
:102B5000002042E0616806FB0011FFF747FF0130EB
:102B6000DBE7009800EB05114FEA051CCB683B4002
:102B7000B3F5000F48D00AD8B3F5001F30D0B3F535
:102B8000800F36D0B3F5801F10D00135D3E7B3F1F5
:102B9000807F42D0B3F1007FF7D150F80C308868C5
:102BA0004A6807F0ECFA40F4802009E050F80C3055
:102BB00088684A6807F0E3FA40F0885040F4302013
:102BC000CDE901230390D8F890302078C3F3072390
:102BD000013B98422AD96FF0150005B0BDE8F0839B
:102BE00050F80C3088684A6807F0C9FA40EA0900D2
:102BF000E6E750F80C3088684A6807F0C0FA40F001
:102C0000C06040F40030DBE750F80C3088684A6858
:102C100007F0B5FA40F08270D2E750F80C308868BF
:102C20004A6807F0ACFA40F08870C9E701A9FFF7DD
:102C3000DDFE237801332370A7E7C1F89830C1F88F
:102C4000A00001337CE74FF0FF30C6E700ED00E065
:102C5000C8DD0000581700200000F0FF0000081138
:102C600008B5024B1B689847002008BD7C11002066
:102C7000034B044A1860937843F002039370704743
:102C80007C1100202002002008B50649064821F0EA
:102C90000701C1F1005202F5802207F027F8002059
:102CA00008BD00BFFF4700208011002070B54169BA
:102CB000857A0C4E044659B1437ADB0706D42423A7
:102CC00003FB0563DB691B689B689847002363610E
:102CD00005EBC505214606EB8500BDE870400AF00E
:102CE000AEBA00BFF8050020024B242202FB0030E0
:102CF000704700BFF80500202DE9F04385B0054678
:102D00006846039190461C460AF088FCDDE900679E
:102D1000EFF31189202383F31288BFF36F8F6B8A3F
:102D2000002B41D02A8A9A4225D900220023284626
:102D300005F054F80446F0B189F31188BFF36F8FA2
:102D4000039B002B41D032463B4668460AF08BFC81
:102D5000A27A264B242101FB02332046DB691B6843
:102D600003A91D68DDE90023A847606170BB204608
:102D7000FFF79CFF24E0698A4B1E6B8289F3118860
:102D8000BFF36F8F2B7D2A8A2C6A1B3323F003033A
:102D9000521A02FB0344154B154AEB1A9B1053437E
:102DA000A3722B7DE372CBE789F31188BFF36F8F9A
:102DB00023464246284605F011F804460028BFD1B4
:102DC0000024204605B0BDE8F0836361012300259F
:102DD0002381039B6382E27A6560294604F118002F
:102DE0000AF00AFD63692582E360EAE7F80500203E
:102DF000398EE33870B50D4C242500B970BD037AC7
:102E00004668002BFAD0013BDBB20372002BF5D1F0
:102E1000C3604360837A05FB03439B6913B1984702
:102E20003046EAE7FFF742FFFAE700BFF805002067
:102E30000E4A0123C2F840354FF080424FF08051D6
:102E4000C2F87835D1F83001082808D1D1F834110A
:102E5000052904D80648415C09B1C2F838364FF05C
:102E600080430122C3F880250020704700E0014024
:102E700021E6000048B1054B054A1B68B3FBF2F39D
:102E80005843044B43F00103184770475004002097
:102E900040420F0060DD000008B50448044A3F23AB
:102EA000C0E9002303F0ACFB002008BD8C1100201A
:102EB000FFFF0F004FF08043D3F84036DB072ED5DD
:102EC0004FF01023D3F8043303F00703072B26D168
:102ED000134A0123C2F80435D2F80034002BFBD08A
:102EE0004FF01021D1F8043323F0070343F004031B
:102EF000C1F804330023C2F80435094AD2F800347B
:102F0000002BFBD0BFF34F8F0649074BCA6802F472
:102F1000E0621343CB60BFF34F8F00BFFDE7704704
:102F200000E0014000ED00E00400FA052DE9F04169
:102F300090F8283003F01F03012B04460F4600F1E0
:102F400028061BD0022B05D043BB90F8291007F0B0
:102F500005FE03E0818DC9B207F0DDFD0546E8B14D
:102F6000304607F0F6FA024668688368A2B99B68A3
:102F70004BB13A463146BDE8F0411847818DC9B2A0
:102F800007F0B0FDEAE76FF085030AF0B1FC0F4AE5
:102F900013500020BDE8F081DB68E9E794F82910C0
:102FA000204607F0F5F902460028ECD0304607F03D
:102FB000D0FA40B91369002BE5D03A463146204695
:102FC00098470346E1E7D368F5E700BF0C0000002F
:102FD0002DE9F04F0B7E33F0800893B0044617467E
:102FE00000F1280940F071844A7E02F0010097B197
:102FF00017F10C0F0FD088B917F1710F03D10846E4
:10300000FFF7F8FE03E00846FFF7F4FEB846404637
:1030100013B0BDE8F08F002800F04084002B40F092
:103020000E840B8A072B0DD80846FFF7E3FE4846AF
:1030300007F08FFA0346A069002B00F03684802148
:1030400000F03CBCCA681368A3625368C9F8043036
:103050004A68E58D002AE7D0484607F07AFA08BBAF
:10306000537E15B113F0020F01E013F0040FDBD013
:10307000002007F0B5F805460028D8D00AF038FC43
:1030800094F82820B84E002312F0600F8351C2F349
:1030900041130BD0032B40F0B3810AF029FC6FF0F1
:1030A000850340E0002DBFD0537EDBE7484607F0A4
:1030B00050FA94F82930002840F03981013B0A2B5E
:1030C000EBD801A151F823F0153200009B3000002D
:1030D000973200009B300000F53000009B3000006C
:1030E0009B3000009B300000673100009B300000E7
:1030F000C9310000A069618D03697F29D3F8803050
:10310000CBD8A28D002AC8D1E28D002AC5D194F86F
:103110002820D206C1D194F83420022A05D10AF021
:10312000E7FB4FF0FF33335013E01B0706D5C9B25E
:1031300007F048FA804620B1284661E7012384F869
:103140003D3094F83430012B0BD1638D4BB984F8AA
:1031500034300AF0CDFB3358002B00F0568328465C
:1031600063E70123F3E7204607F087F8628DFF2A23
:10317000014692D8E38D002B8FD194F82830D806E1
:103180008BD194F83430002BC9D02AB1D2B220466A
:1031900007F0CDFB0028C2D0618D94F83C308B4203
:1031A000D7D0C9B2204607F0C9FB80460028C3D15A
:1031B000628D002A14BF0223012384F834300521D4
:1031C000204607F0D9FEC4E794F8283003F01F0327
:1031D000012B7FF462AFE38D002B7FF45EAF628D35
:1031E000FF2A3FF65AAFA18DFF293FF656AF94F85C
:1031F0003430022B93D1D2B2C9B2204607F0B0FDD1
:1032000010F1020F804640F000810AF071FB46F891
:1032100000809EE7E38DA18D002B7FF43EAF94F8F4
:103220003430002B3FF47BAF012B0FD100297FF40A
:1032300076AF12F01F020CD1638D012B89D194F867
:1032400070306FF3C30384F8703082E712F01F020E
:1032500017D0022A7FF47DAFB4F82AA0BAF1000F8C
:103260007FF477AF5FFA81F84146204607F06AFEA7
:1032700003460AF03DFB3350013306D14FF0FF38CF
:103280005AE700297FF44BAFD6E752464146204625
:1032900007F065F95DE7E38DA18D002B7FF4FDAEAE
:1032A000638D022B5FFA81F813D194F8283003F074
:1032B0001F0358EA03037FF4F0AEA0690122090A54
:1032C00007F05DF900287FF4E8AE012384F83D3073
:1032D0003FE794F8340000283FF421AF01280DD1D6
:1032E00000297FF41CAF12F01F020AD1012B7FF4DA
:1032F00030AF94F8703043F00803A4E712F01F02D7
:1033000011D0022A7FF425AF002B7FF422AF414673
:10331000204607F002FE03460AF0EAFA3350013372
:10332000ACD00122B2E700297FF4F9AEDEE70A2B28
:103330003FF6B3AE01A151F823F000BF6D3300009A
:103340009B3000009B3000009B3000009B30000051
:103350009B300000ED3300009B300000A3370000DD
:103360009B300000D13700000C000000E38DA18DE0
:10337000022B7FF492AE94F83430002B3FF4CFAEA2
:10338000012B10D100297FF4CAAE12F01F020DD11B
:1033900094F870304FEA930808F00208C3F3001362
:1033A00048EA030806E012F01F0210D0022A12D0E9
:1033B0004FF0000805F10C0A504606F04DFFE38D72
:1033C00098420ED20AF094FA6FF00B03ABE6002994
:1033D0007FF4A5AEDCE7C9B2204607F0C2FD804607
:1033E000E8E74146504606F01EFFB2E694F8282072
:1033F000B4F82AA0D2064FEA1A235FFA8AFA09D053
:1034000029462046FFF792FD8046B8F1000F7FF471
:1034100093AE9EE6013B0E2B3FF63FAE01A252F863
:1034200023F000BF61340000AB34000063350000BE
:103430009B3000009B3000005B3500005B350000D6
:103440009B3000009B3000009B3000009B30000050
:103450009B3000009B3000009B300000AB3600002A
:1034600005F10C0A5046B4F82E8006F0F5FE8045B2
:103470000AD2B4F82E80204606F0FFFE48B101289B
:103480007FF40BAEA16F05E0504606F0E5FE8046E6
:10349000F1E7616F002900F013810A78424528BFE7
:1034A0004246504606F0AEFE53E6204606F0E5FEE4
:1034B0000AF1010201900146D2B2204607F011FA4A
:1034C000824600283FF4E9AD05F10C08D0F804B0BD
:1034D000404606F0C1FE9BF80020904203D24046D1
:1034E00006F0BAFE02465946404606F08BFEDAF870
:1034F0000CA0BAF1000F09D1298AE38D99427FF619
:1035000028AEC91A404606F098FE22E6DAF8040012
:1035100083681B6B13B9DAF800A0EAE701999847B2
:103520000028F8D0A0F1040B5BF8043F002BF2D088
:103530001B78002BEFD0404606F08EFEDBF8003003
:103540001A78904203D2404606F086FE82B2DBF83B
:103550000010404606F056FEE6E7204606F08DFED7
:103560009BE552460321204606F051FF8246002883
:103570003FF493AD06F0E8FFB4F82EB0E0B9BAF826
:103580001430ADF82830DAF8103005F10C081B883B
:10359000ADF82A30404606F05FFE834508D2E08D44
:1035A0009DF82820824228BF02460AA9404679E7B2
:1035B000404606F051FEF3E700238DF814309AF8E8
:1035C0001530DAF808208DF81530C24B1340C24A86
:1035D000934258D1102106A808F013FD0028FFF6E9
:1035E0005CAD0AAA1028DFF8F4E20DF1180C1146C0
:1035F00028BF1020404502F1020233D8800002307B
:103600008DF81400019105F10C0A504606F024FED5
:103610009DF81480D84528BFD846404503D250466F
:1036200006F01AFE8046B8F1020FC34628BF4FF0DD
:10363000020B5A4605A9504606F0E4FDA8EB0B081C
:10364000DDF804B04FEA58030BEB58025A4522D17B
:1036500018F0010F3FF47DAD019AD15C504606F0A1
:10366000DAFD76E51CF8013B4FEA131A03F00F036D
:103670001EF80AA01EF8033002F802AC02F8013C62
:1036800008F10108B6E79AF814308DF81430DAF82A
:1036900010300193B7E71BF8011B5046CDE9023209
:1036A00006F0C1FDDDE90232D0E7204606F0E5FD77
:1036B00020B101287FF4F1ACA36F00E0636F13B970
:1036C0006FF0150838E55B88B3F5007F7FF6E5AC51
:1036D000834B0A9300238DF82C30236D04F1500A9C
:1036E0009A455BD105F10C0B584606F0B5FDBDF8C7
:1036F0002A80E38D984528BF9846404503D2584616
:1037000006F0AAFD80469DF82820424528BF424683
:103710000AA9584606F076FDB8F1050F94BFA8EB4C
:103720000808A8F10508B8F1000F3FF412AD236DA9
:1037300053453FF40EAD002B3FF40BAD5A7D0F2ADD
:1037400014D11A7D19690193424528BF4246584653
:1037500006F058FD019B1A7D424594BFA8EB020874
:10376000A8EB0808B8F1000F3FF4F3AC626D9A4281
:103770003FF4EFAC1B68DEE75A7D0F2A0AD11A7DB1
:10378000BDF82A100A44ADF82A209DF82C200132F9
:103790008DF82C20626D9342A4D01B68002BEBD1D6
:1037A000A0E794F8343094F83CA0002B3FF4B7AC79
:1037B000E38D012B7FF471AC05F10C08404606F057
:1037C0004BFDE38D9842FFF4FDAD5146404646E780
:1037D00094F8283003F01F03012B7FF4A0AC20469F
:1037E00007F093F800283FF49AACA38D4268FF2BB2
:1037F0003FF653AC12799A42FFF44FAC0F2B3FF6D1
:103800004CAC234493F83EA0D2E7012323634846FF
:1038100006F09FFE60B9E38D53B12946002006F003
:10382000DFFC054600283FF402AC6B7E5E07F4D552
:103830002946204613B0BDE8F04F07F00EBB5007F5
:103840007FF5F5AB802B7FF4F2AB0846FFF7D2FA99
:10385000236B012B7FF4DBAB94F83D30002B3FF45E
:10386000D6AB94F82930052B05D1618DA069C9B27A
:1038700006F0A8FE804694F82930032B09D1638D09
:10388000022B06D1A18DA0690022090A06F077FE5D
:103890008046002384F83D30FFF7B9BB52077FF51F
:1038A000C6AB002B3FF4ABABCCE7E38D002B3FF472
:1038B000C6AB17F10C0118BF0121C90108F02CF8A3
:1038C000002380462363FFF7A2BB6FF00408FFF7D5
:1038D0009EBB00BF00FF02000003020027E60000BD
:1038E000050F05000B78062B10B414D10369D3F82B
:1038F0009C20EFF31184202383F31288BFF36F8F92
:103900004B6800201860506A58B9C2E9083384F344
:103910001188BFF36F8F044810BC0022002309F008
:10392000E4BB03605362F2E7B40500202DE9F043E5
:10393000634F85B020264FF0FF334FF0FF3201A9CF
:10394000384604F01FF9039B1B69D3F89C40236A97
:103950005BB1EFF3118386F31288BFF36F8F216A97
:10396000E1B983F31188BFF36F8F9DF80430062B04
:10397000E1D0072BDFD801A252F823F0E339000091
:10398000D7390000033A0000E9390000273A000067
:103990001D3A000037390000BB3A0000606A0A682F
:1039A0002262814208BF626283F31188BFF36F8F86
:1039B0000B7ED1F81E205D06204609D1FFF708FBDB
:1039C00002460028C3D00721204607F0D5FABEE7FB
:1039D00007F098F8F4E700220121204607F0CCFA1E
:1039E000A9E700221146F8E794F8703043F0040389
:1039F00001A984F87030204606F006FE002203215B
:103A0000EBE794F870306FF3820301A984F870300B
:103A1000204606F0F9FD00220221DEE701A920463A
:103A200006F0F2FD87E794F87030D4F818806FF351
:103A3000820384F87030D8F81030D8F80890BFF3BB
:103A40005B8FD3F8A030BFF35B8F9A072BD5D9F8E3
:103A50003C3040469847D9F82430002140469847EA
:103A6000D9F84030054640469847F5B929462046E2
:103A700006F064FF0546C0B98021204607F04AFAE7
:103A8000A06907F0FCFF831E5842584194F870303B
:103A900084F8345023F0680343EA401384F870300C
:103AA0002A46042199E74FF0FF35002204212046E1
:103AB00007F062FA2A4607218FE7029A06218CE76F
:103AC000B405002030B589B000220023CDE90623DB
:103AD00000246FF00703CDE90334CDE901441A4B0C
:103AE0001A4900944FF48062194804F071FC194996
:103AF000174804F0E5FB184B18498B4207D3184BC5
:103B0000184900208B4210D3002009B030BD03F1CA
:103B10001402BFF35B8F52E8000F42E80045002D0E
:103B2000F9D1BFF35B8F1833E7E703F11402BFF35A
:103B30005B8F52E8004F42E80005002DF9D1BFF33A
:103B40005B8F1833DEE700BF2D3900000020002016
:103B50007007002038E6000098060020B00600201C
:103B6000B0060020B006002038B5024609490546D7
:103B7000806907F0EBFF044648B985F83C00284609
:103B800006F0B3FD044610B1A86908F012F820460B
:103B900038BD00BFE538000070B5084C084E05463A
:103BA000B44202D30024204670BD636828461968D9
:103BB000FDF710FB0028F6D01834F1E79806002036
:103BC000B006002070B50646EFF31181202282F383
:103BD0001288BFF36F8F1D4C236881F31188BFF3E8
:103BE0006F8F5B6893F87030DB0705D4BDE87040D9
:103BF0002122002304F05EBBEFF3118382F31288CD
:103C0000BFF36F8F256865B983F31188BFF36F8F9A
:103C10002368D3B130460022BDE87040002304F091
:103C200015BB61682A6822608D4208BF626083F319
:103C30001188BFF36F8F686805F10801C369984761
:103C40000348294609F001FAE2E770BD941100200B
:103C50003405002030B585B06C4684E80600054682
:103C600000221548002303A903F0F4FE0246E8B938
:103C7000039B94E803005D60083383E80300EFF3DF
:103C80001180202383F31288BFF36F8F039B1A6088
:103C90000A4A516861B9C2E9003380F31188BFF361
:103CA0006F8F07480022002304F0D0FA05B030BD22
:103CB0000B605360F1E700BF340500209411002031
:103CC0000000002038B503464D78406814461A6954
:103CD000202D136908D0222D3AD009F009FE214B7E
:103CE0006FF085021A502DE0C9880729F5D1E168E7
:103CF0000C685C608C881C8189799972596819619B
:103D0000197A61B101290CBF022103215975597A31
:103D10004C1E032C05D8DFE804F00505050501213C
:103D2000F4E700211975997A06290DD007290DD0DD
:103D300005290CBF002103219975997ED9750821A9
:103D400007F028F9002038BD0121F5E70221F3E74B
:103D500049889981C1F3400401F0010159761C762C
:103D60000921EDE70C00000008B51346026910694F
:103D70004A78212A13D133B909F0BAFD0B4B6FF001
:103D80000B021A5009E0CA88072A00F1040128BF73
:103D9000072203F10C0006F035FA002008BD09F0F7
:103DA000A7FD024B6FF08502EBE700BF0C0000009F
:103DB00073B504698DF807102025EFF3118685F39C
:103DC0001288BFF36F8F0122E06B0DF1070106F03F
:103DD00059F986F31188BFF36F8F012812D009F0CB
:103DE000B3FA08B9A37EABB90D4BBFF35B8F0122C9
:103DF00053E8001F002903D143E800200028F7D131
:103E0000BFF35B8F2122002304F1480004F01EFA67
:103E100002B070BD0021212009F04FFBCDE700BFAB
:103E20009C11002038B505690C49EB6B0024C3E9EF
:103E30000144DC606B6B05F14800C3E90144DC60C0
:103E400009F076FA05F17800054909F045FA05F11F
:103E50002400044909F040FA204638BD43B100006F
:103E6000EBB2000077B30000F8B587681446FB6B2F
:103E700005460E4698472146064800220023FEF7D5
:103E80003BFF044600B1067628463B6C9847204627
:103E9000F8BD00BFF80500204FF08053D3F8302163
:103EA000082A06D1D3F83431052B04D8034AD05C54
:103EB0007047002070470120704700BF59E600009E
:103EC00010F0080F0B4B42B20CD100F00F00002A8B
:103ED0004FF0140202FB0033B4BFD3F80806D3F846
:103EE00008077047002AB4BFD3F8A806D3F8A8077C
:103EF000704700BF00700240F8B50246EFF311852D
:103F0000202383F31288BFF36F8F00F0080707F0B8
:103F10004BFF0126864012F07F0F1E4B6FEA06040E
:103F200032D057B11A6822401A601B4BC3F86C6438
:103F300085F31188BFF36F8FF8BD184F396821FAE8
:103F400000F0C0070AD419682140196014490B68B1
:103F5000120654BF234033430B60E6E7214039602B
:103F600051B2C94322F08000C90F00F2DA300901D2
:103F700001EB40010848C0F80018D0F8041841F0DF
:103F80000201C0F80418DEE7196821401960002F0B
:103F9000CBD1DBE7F811002000700240F4110020C3
:103FA000FC110020EFF31180202383F31288BFF36C
:103FB0006F8F0A4BD3F8001C032261B949F27531A7
:103FC000C3F8001CC3F8142DC3F8001C80F311883B
:103FD000BFF36F8F7047C3F8142DF7E700E006407A
:103FE000EFF31180202383F31288BFF36F8F0A4B06
:103FF000D3F8001C61B949F27532C3F8002CC3F83C
:10400000141DC3F8002C80F31188BFF36F8F704725
:104010000022C3F8142DF6E700E0064070B5024612
:1040200007F0C2FEEFF31185202383F31288BFF35C
:104030006F8F531E0124062B04FA00F40FD80E4E86
:104040000E4B31681B680B43C34013F0010306D1CC
:104050000B4802F59472214340F822303160094A3E
:10406000136823431360084B8022C3F8042185F3AF
:104070001188BFF36F8F70BDF4110020FC11002078
:1040800000700240F811002000E100E0F8B50306DE
:10409000044623D410F0080720D100F00F0292004C
:1040A00002F1804202F51C32D2F84434B3B1EFF38E
:1040B0001186202383F31288BFF36F8F07F074FEFD
:1040C000084DC2F8A074012303FA00F12B6823EA1B
:1040D00001032B6086F31188BFF36F8F024BC3F887
:1040E0001845F8BDFC1100200070024008B50B7E99
:1040F000012203F00F0013F0800F02FA00F2124BBE
:1041000012D0D3F81005104218D00B7E1A0709D42C
:104110000D4AC2F80C3543F48073C2F80C35087EA2
:10412000FFF7B4FF002008BDD3F814051042ECD10E
:10413000D3F814050243C3F81425E6E7D3F81005B5
:104140000243C3F81025E0E7007002400B7E064AE8
:1041500013F07F0F0BBF012343F480735365C2F844
:1041600018350020704700BF0070024038B5044683
:104170000D4607F0C9FDA8B12946204607F0AFFD5E
:10418000204607F0BAFD10B12846FEF733FE294657
:10419000204607F0C7FD064B1B7813B9054B0122DB
:1041A0001A6538BD204607F0B6FD0028E4D1E7E7E0
:1041B0005F1700200070024038B545682C4654F85F
:1041C000040B01F041FB094B00221860012127205C
:1041D000FEF73CFB204602F003FD05F1080002F06B
:1041E00041FD08F027FD002038BD00BFB0110020C0
:1041F000012810B5014602D0022807D098B90A4B11
:10420000BDE810401868002207F087BA074B084C39
:1042100000221A70074BC4F800332720FEF7E6FA95
:104220000123C4F8043510BD001200205C170020E3
:1042300000700240FDFFDF010146014809F0BDBAF0
:10424000EC05002008B5054B1970054B1B7813B120
:104250000420FFF7F1FF002008BD00BF5D1700201C
:104260005E1700202DE9F04F494B0769186089B0AF
:10427000054607F1840008F047FF00220023CDE93E
:10428000062300246FF00703CDE90334CDE9014490
:10429000404B414900954FF40072404804F098F8B3
:1042A0003F4E40493D48DFF80091DFF800A104F09F
:1042B00007F832693E4B134043F4820343F0400356
:1042C0003361B04634763146284607F0E1F90028DC
:1042D0005AD10134092C18D008EB4412082C937CD5
:1042E00043F04003937408D1D8F81031314A1A4092
:1042F000314B1343C8F8103105E0136909EA030391
:1043000043EA0A0313612036DCE72C4C2C4B22696C
:10431000DFF8A090DFF8A0A0DFF88CB0134043F4E2
:10432000041343F0400323610646A04666F07F0372
:1043300023762146284607F0ABF928BB0136092E23
:104340001AD008EB4612082E937C43F02003937496
:1043500008D1D8F8103109EA030343EA0A03C8F880
:10436000103107E013690BEA030343F4C02343F061
:10437000400313612034D9E797F8803023F07603A7
:1043800043F0760387F8803009B0BDE8F08F00BFB6
:1043900000120020D54400004024002030080020F6
:1043A0002413002050E600000000F9FF4000060042
:1043B0000000BEFF0000F7FFFF010800041200200C
:1043C0000000DEFF38B50D4628461146144607F0BA
:1043D00092F9287E802809D1238A3BB9637E5B0746
:1043E00004D54020FFF728FF002038BD07F0DCFC93
:1043F0000146024807F01FFD0120F3E748140020A2
:1044000008B5064A0B7EC2F80C3543F48073C2F837
:104410000C35087EFFF73AFE002008BD0070024010
:1044200010B50C7E4FF0FF324FF0FF33114803F010
:104430003BFD2046FFF760FD04F00F02012393408F
:104440000D4A14F0800F14BFD2F81015D2F81415CD
:104450006FEA030315BF0B400B40C2F81035C2F8DA
:104460001435044803F0ECFC044B8022C3F804210B
:10447000002010BDDC0500200070024000E100E0DB
:1044800070B505460E7E0C464FF0FF324FF0FF33FD
:104490000E4803F009FD3046FFF72EFD0B4803F0F0
:1044A000CFFC0B4B8022C3F80421204607F00AF909
:1044B000014620B16FF07002284607F03AF9204615
:1044C000002107F0E0F8002070BD00BFDC050020EF
:1044D00000E100E02DE9F04FBC4FBD4D85B0044632
:1044E0004FF0FF384FF0FF390022CDE900894FF03F
:1044F000FF31384609F068F94FF0FF31384609F0CE
:104500005FF910F0080F82462ED0B24842464B4663
:1045100003F0CAFCEFF31182202383F31288BFF368
:104520006F8FAD4B1B787BB1D5F8003413F400735B
:104530000AD10121C5F82C15D5F82C15D5F8001491
:10454000890548BFC5F82C3582F31188BFF36F8FFA
:10455000A04803F075FC0121204607F067F800220F
:104560000321204607F0D9F81AF0100F08D00021D7
:10457000204607F05BF800220221204607F0CDF824
:104580001AF0200F08D00021204607F04FF8002233
:104590000221204607F0C1F81AF0020F40F0858092
:1045A0001AF0010F10D0BFF35B8F8C4B002253E841
:1045B000006F43E800210029F9D1BFF35B8F4FF072
:1045C0000108002E40F0DA801AF0400F0AD0802156
:1045D000204607F04BF807F071F8014610B120466D
:1045E000FFF7C4FD1AF0040F3FF47AAF0021204614
:1045F00007F03CF880218046204607F037F8064651
:10460000404607F05FF808B1FEF7F4FB304607F0CC
:1046100059F808B1FEF7EEFB0021404607F033F8E9
:104620003046002107F02FF808220021204607F02D
:1046300016FA064600283FF453AF07F05EF8D5F8A7
:104640008014F368C9B21970D5F88424D2B25A70B4
:10465000D5F88804D5F88CC440EA0C2058801FFA9D
:1046600080FED5F89004D5F894C440EA0C209880D8
:10467000D5F89804D5F89CC440EA0C201FFA80FCB9
:10468000D880574811B9052A00F08F80DFF854C14F
:1046900000220270D5F870149CF800C08C4540F0E0
:1046A000A780514B00221A70B2E0504BBFF35B8FD2
:1046B000002253E8008F43E800210029F9D1BFF31D
:1046C0005B8F4FF00109B8F1000F3FF469AF98FA22
:1046D000A8FBBBFA8BFB09FA0BF3BBF10F0F28EA1F
:1046E000030810DDABF11006F6B23146204606F0A5
:1046F000BDFF029006F0E2FF834630BB3146204604
:1047000007F070FBDFE74BF080063146204606F0ED
:10471000ADFF029006F0D2FF039058B1029800213D
:1047200006F0B1FF039BBBF1000F08D119462046EC
:10473000FFF71CFD3146204607F03EFBC3E7002291
:104740001946204606F0F5FFF4E70298002106F02E
:104750009AFF6EB92046594607F0E4FA204607F062
:10476000D3FA0028CAD05946204607F04DFAC5E7CB
:1047700000225946204606F0DCFFBFE796FAA6F372
:10478000B3FA83F308FA03F20F2B26EA020606DDDA
:10479000A3F11001C9B2204607F024FB11E743F052
:1047A0008001204607F008FB0BE701220270BCF1F4
:1047B000000F03D03046FEF71DFB91E60EF07F029E
:1047C0005A8083F804C083F805C06AE7EC0500202E
:1047D00000700240DC0500205C1700204814002017
:1047E0005F1700205D1700205E1700204414002092
:1047F000DFF8A0C01A7001218CF8001001700521AB
:104800005970D5F8701459801A715A719A71DA7109
:10481000082106F10C0005F0EFFC2046314607F0B8
:1048200081FA204607F062FA20B31B4B4FF00008D4
:1048300083F80080F36841462046B3F806A006F0EE
:1048400015FF414681465246204607F008F90146C9
:1048500048B1484606F04FFF4146204607F0C2FAED
:104860000123EB643CE66FF00B023146204606F074
:1048700060FF35E6204607F040FA30B1064B802253
:1048800020461A7007F0E6F92AE6204607F008FAF3
:1048900026E600BF5E1700205B1700204FF0805314
:1048A000D3F83031082B02BF024B0022C3F81C2C76
:1048B000704700BF007002402DE9F04105464FF0FF
:1048C000FF324FF0FF33384803F0EEFA374B8022C7
:1048D000C3F884212720FDF7ABFFA0B1344F354B3F
:1048E0003C681B68240C24041C434FF001088CBB5B
:1048F000314E40F2FF133B602720C6F80445FDF718
:1049000083FFC6F800432D4A13788BB12A4B002150
:10491000C3F808110121C3F80026C3F80416596032
:10492000D3F808110029FBD00021C3F80811117039
:10493000214B0024C3F80045FFF7B0FF1A4803F0ED
:104940007FFA2146284606F0ACFFC0B16FF00400A4
:10495000BDE8F08194FAA4F6B6FA86F60F2E334637
:10496000C6BFA6F11003D8B243F08000030701D4FC
:10497000FFF7C2FA08FA06F624EA0604B7E7802130
:10498000284606F08EFF0028E0D10D4B0D491C682B
:10499000204605F0EFFA10F1780F02D1204605F01D
:1049A000C5FA00EAE070D3E7DC05002000E100E092
:1049B000FC110020F811002000700240591700205F
:1049C000B0110020A01100202DE9F04F404B414FC5
:1049D000D3F8542185B0B2B10022C3F85421D3F8E2
:1049E000042391020FD5D3F8C034002B3B6814BFC9
:1049F0004FF001224FF480721343374A3B60136833
:104A000023F001231360324BD3F8604134B100220C
:104A1000C3F86021D3F86C44C3F86C44D3F8282160
:104A20004AB10022C3F828212C4B187807F0BCF9B2
:104A3000012383401C43DFF8A8A09AF800509AF99C
:104A400000102A0732D40029B4BF264B264B05F0AC
:104A50000F02920013441A68002A5AD000221A60EA
:104A60002846FFF72DFA214B1A7800F0010050403C
:104A70001870FFF713FF1E4B28461A6807F094F9C9
:104A8000C240D30706463BD4002916DA882D06D14A
:104A90000146184807F0CFF90220FFF7CDFB0E4A78
:104AA00001231168B3400B4313602FE0124B134AEC
:104AB00013EA210338BF1346CDE701460D4807F03E
:104AC000BAF90220FFF7B8FB013D062DE7D91DE03A
:104AD00000700240FC110020F41100205B17002040
:104AE0005A17002008710240307102405917002007
:104AF000F8110020441400202C7102405071024033
:104B0000002D40F0F0809C4B0122DA649B4803F0BA
:104B100097F994B13B689A4ADFF86882DFF86892A7
:104B200024F001210B433B60136823EA0103136067
:104B3000A4B20126002C40F0DA808F4BD3F800217C
:104B40004AB10022C3F80021904B1A708D4B04210A
:104B5000186806F0E2FD884BD3F858212AB30022EA
:104B6000C3F85821D3F80044C3F80044E00505D544
:104B7000864B012208201A70FFF75EFBA10505D5C0
:104B8000824B002210201A70FFF756FB62050CD5ED
:104B90007E4B1A784AB100221A70774B0122C3F873
:104BA000082520209A65FFF747FB734B784CD3F814
:104BB0005C31E3B1714B9B681BB99AF800305B061E
:104BC00015D06D4B0022C3F85C2123686C4A23F09A
:104BD000011323603B6823F4803343F001033B60FF
:104BE0001368042023F001131360FFF725FB2468EA
:104BF0003B681C4074D0604BD3F82C35002B6FD130
:104C00005E480022002303F04FF9002868D114F019
:104C1000012314BF93FAA3F494FAA4F4B4FA84F42D
:104C20000F2C88BFA4F11008564B8CBF5FFA88F890
:104C300044F080081868414606F018FD009006F020
:104C400058FD4FFA88FB08F00802BBF1000F03463D
:104C5000019208F00F0980F29F80009B058A5B8B10
:104C6000C668C3F30A039D4206F0604271D9B2F1EF
:104C7000005F1D4605D031464648464E1A4608F0AC
:104C8000ADFD4FF080530121D3F83031082B02BF26
:104C9000394B8222C3F81C2C3B68019A8AF80080A9
:104CA00001FA04F423EA04033B60334B002A40F08A
:104CB000AB80BBF1000F4FF0140202FB0932A9BF19
:104CC00009F10A0903EB8903C2F80067C2F8045727
:104CD000AFBF43F82910C2F80066C2F80456596005
:104CE00005B0BDE8F08F0029BFF6EEAED7E694FA26
:104CF000A4F5B5FA85F506FA05F345F080052946D1
:104D0000D8F8000024EA030406F0B0FC06F0F1FC39
:104D100083462846FFF7D4F801460BF10C0005F056
:104D200093FABBF81030002B7FF404AF584606F01E
:104D3000EBFC18B1584606F0EBFCFBE6284607F002
:104D400033F80146484607F076F80220FFF774FA78
:104D5000F0E6009206F0D8FC009AB2F1005F03463C
:104D600007D0009031460B480A4E2A4608F036FD1F
:104D7000009B002B3BD084E700700240DC05002044
:104D8000F411002000120020441400205C170020C1
:104D9000F8110020B411002008F00801224A71B374
:104DA000D2F8C02412F4803F18BF0022198A53F8A9
:104DB0000C6F039218460E44029305F04DFA039AC5
:104DC000029B904228BF104601460546184605F052
:104DD00013FA009B039A598B029BC1F30A0191427B
:104DE00005D1184605F038FA00287FF44AAF0F497C
:104DF00001220B68A24023EA02030B6041E709F598
:104E0000947152F82120D1E7BBF1000FB5BFC3F870
:104E1000A066C3F8A067C3F8A456C3F8A457B4BFEC
:104E2000596299645CE700BF00700240F8110020ED
:104E3000EFF31183202282F31288BFF36F8F174A9A
:104E400012781AB3164AD2F82C15F9B10021C2F81B
:104E50002C154FF08052D2F83021082A05D083F368
:104E60001188BFF36F8F002070470E4AD2F8000CF4
:104E7000C02140B949F27530C2F8000CC2F8141CC8
:104E8000C2F8000CEBE7C2F8141CE8E783F31188C2
:104E9000BFF36F8F6FF00A00704700BF5C170020F0
:104EA0000070024000E0064013B500220092114657
:104EB0004023044606F09AFC024618B16FF0040045
:104EC00002B010BD009040238021204606F08EFCE9
:104ED0000028F3D1534901238B60534B4860C860CD
:104EE000186804F0CCFF0028EADBEFF311842023DC
:104EF00083F31288BFF36F8F4C4B4FF40062C3F8FB
:104F00000024FEF7C9FF08B1FFF74CF84FF08053BB
:104F1000D3F83031082B18D1EFF31180202383F31D
:104F20001288BFF36F8F424BD3F8001CC0220029B8
:104F300071D149F27531C3F8001CC3F8142CC3F8C1
:104F4000001C80F31188BFF36F8F384B0122C3F828
:104F50000025D3F800241205FBD54FF40062C3F8F6
:104F600000244FF08053D3F83031082B17D1EFF3E2
:104F70001180202383F31288BFF36F8F2C4BD3F85B
:104F8000001C00294AD149F27532C3F8002CC3F83D
:104F9000141CC3F8002C80F31188BFF36F8FFEF749
:104FA0007BFF30B1FFF71CF8FEF776FF08B1FEF784
:104FB000F9FF4FF08053D3F83031082B1B4B0AD147
:104FC00040F2E372C3F800284022C3F80428BFF37C
:104FD0006F8FBFF34F8F8022C3F81C250122C3F8C7
:104FE0003025144B40F2FF121A60134B0021196058
:104FF000124B1960124B1970FFF750FC114B1970CE
:10500000FEF74AFF08B1FEF7EBFF84F31188BFF308
:105010006F8F002054E7C3F8142C92E70022C3F8E6
:10502000142CB8E7A0110020B0110020007002403D
:1050300000E00640FC110020F8110020F4110020CF
:10504000591700205B170020142810B50CD8084A07
:105050000C6812F8103002EB40026343527893FB65
:10506000F2F300200B6010BD6FF01500FBE700BFEE
:105070006DE6000030B585B000230193CDF8073010
:105080004B798DF80B300B7913F0200511D08A790C
:105090007F2A08BFFF228DF80C20C3F3040203F01F
:1050A0001F03072B8DF80D2005D96FF0150005B0F3
:1050B00030BDFF22EFE70A780C2AF6D801A050F89D
:1050C00022F000BFFF500000F95000002351000003
:1050D000AB50000027510000AB5000002B510000E6
:1050E000AB500000AB5000002F51000033510000C6
:1050F000AB5000003751000001228DF806204A789D
:10510000032A1AD0042AD0D14A8844F20A008242E3
:1051100038D843F6FE70824213D8002AC5D1022245
:105120003FE00222E9E70322E7E70422E5E7052260
:10513000E3E70622E1E70722DFE701228DF80720F7
:10514000E2E7A2F57F523F3A0B2AAED801A050F811
:1051500022F000BFDD510000AB500000AB5000005A
:10516000AB500000A7510000AB500000A15100005F
:10517000AB500000AB500000AB500000AB50000043
:105180001F51000044F21400824225D044F228004E
:10519000824223D044F20F00824286D1032200E0F3
:1051A00001228DF808201A48012404FA03F390F82C
:1051B0005020DBB2F5B18D797F2D11D1134380F8EA
:1051C00050300B7990F8512003F01F0304FA03F3D9
:1051D000134380F8513009E00422E2E70522E0E7BA
:1051E00022EA03028DF8094080F8502001A807F058
:1051F0005FFE5CE7134380F850300B7990F8512044
:1052000003F01F0304FA03F322EA0303E1E700BFFC
:10521000D000002010B50B4C94F83A3023B1BDE813
:105220001040094802F07AB902F0CCF840B16FF0B2
:105230000403636204F11400BDE8104006F00EBEE2
:1052400010BD00BFD00000204D520000F8B503781B
:10525000002B40F09D80564CE36A94F850701F423A
:1052600025460BD1534B0022C3F80025A36A002B1F
:105270003FD15148BDE8F84006F0F0BD018994F8EF
:105280009800A26D94F85160A0B90121DBB20B42E5
:105290000BD00F4208D016EA010CB2F9000023D05F
:1052A00000EBD070401010800232490089B2B94240
:1052B000EDD9D7E7334015D002EB41019142D1D06F
:1052C000B2F9003003EBD3735B1022F8023BF5E731
:1052D00032F91360002EB8BF22F8130001338B425D
:1052E000F6DBBFE71846FAE70028B8BFA2F800C00F
:1052F000DAE7236CB4F84C2033B130493048984792
:10530000012820D0022836D0B4F84C30B4F8482018
:105310009A4230D90133A4F84C3094F89830B3B99C
:10532000A36D94F8522003EB4203A36594F8521046
:10533000A06D02F007F850B16FF004031E486362DD
:1053400006F08CFD03E094F89830002BEED0E36B70
:105350001BB9BDE8F840FFF75DBFBFF35B8F55E8B1
:10536000003F5A1E45E800210029F8D1BFF35B8FAA
:10537000012BEEDCF8BDE36B002B3FF47AAF94F821
:105380009830002B7FF475AF0E4808F099F970E75C
:10539000022B09D102F016F80028EBD004486FF078
:1053A00004034362143065E7052BE3D161E700BFD6
:1053B000D000002000700040E4000020F800002031
:1053C00064DA000030010020094BBFF35B8F53E823
:1053D000002F511C43E800100028F8D1BFF35B8F69
:1053E0000AB9FFF717BF6FF00F025A62704700BF8C
:1053F000D000002010B50D490D48002208F054F9E6
:10540000002001F0CFFE044660B9024601210720CA
:10541000FDF71CFA0748C36813B9043006F01EFDF7
:10542000204610BD6FF00404FAE700BFC953000026
:1054300030010020D00000202DE9FF410F464FF041
:10544000FF3375484FF0FF3202F02EFD7E68731E69
:10545000FE2B08D96FF015046F4806F0FFFC2046BC
:1054600004B0BDE8F0810024254626FA04F3DA07EB
:1054700006D501F0DDFEE040C307EBD50135EDB206
:105480000134082CF1D1002DE4D03B7C083B062BE5
:10549000E0D801A252F823F0D35400005554000084
:1054A000D754000055540000B55400005554000076
:1054B000DB5400000221012D7A7C10D0002AC9D1D2
:1054C000564B002083F89800554B304601F0B6FE4D
:1054D0002CE00021EFE70121EDE70321EBE7082AAB
:1054E000B8D8DFE802F00505050505050505050046
:1054F0003B68002BE4D05C68002CE1D118680138CF
:105500007F28DDD88DF808208DF809401B68434AB4
:105510001B01013BADF80A30012382F898308DF869
:105520000C3002AA3E4B304601F0B8FE044600287B
:1055300092D13A686B0012B1928902FB0333FA6888
:105540009A4265D3354E86F8525096F89830B8682E
:10555000B065B046002B4AD03B689D890135A9B2A1
:1055600001F0F0FE044600287FF476AFBC46BCE8AC
:105570000F002C4D0FC5DCF800302B6074623B68C7
:10558000002B42D00FCB2F1D87E80F00F36BB762C3
:10559000A6F84C40002B38D0BFF35B8F58E8003F93
:1055A00048E80042002AF9D1BFF35B8F96F89810C3
:1055B000F9B9F06B1C4C1D4A4FF40047E0FB074162
:1055C00000232046FBF7ECFD0022CDE9000100237B
:1055D00005F1280003F0E0FC15484FF0FF324FF0D2
:1055E000FF3302F061FC00B17062746A34E729464F
:1055F000B6E701F0E7FE0028EED06FF00403A5F156
:105600002400736206F02AFCE6E7FFF703FEE3E7F7
:105610006FF00B0420E700BFD4000020D000002072
:105620004D520000F80000203F420F0040420F00A2
:10563000E4000020084B70B5C31A0D4607499B10C3
:10564000044659430648402206F013FC2B46014607
:105650002046BDE87040184760140020B76DDBB6E7
:10566000A4D9000073B50C4C0C4A4023041B0093D2
:105670000D460B460A49A41061430646094806F048
:1056800024FC011E05DA30462B4602B0BDE870400E
:10569000184702B070BD00BF6014002035BF000085
:1056A000B76DDBB6A4D900000022F8B5012105468C
:1056B0001046FDF7CBF8104800F0CAFF0446B8B911
:1056C00000F0E6FF2F690D49384604F0C5FB031EC4
:1056D00009DB01263E642D69084905F11C0004F030
:1056E000BBFB031E02DA1C462046F8BDEE64FBE756
:1056F0006FF00404F8E700BF2D58000068DE0000DA
:105700001FB500220123CDE90223094ACDF800D0BC
:105710006B46CDF804D006F006FC002805DB4FF4FC
:1057200080420023684602F0BFFB05B05DF804FB31
:1057300047BF000010B5EFF31184202383F31288D4
:10574000BFF36F8F074A136823F00201DB07116074
:1057500002D4012006F06AFF84F31188BFF36F8F33
:1057600010BD00BFB014002030B4104B0C2202FB5F
:10577000003301460020D3E90E529863EFF3118005
:10578000202484F31288BFF36F8F1C6C04F0C004D4
:1057900044F002041C6480F31188BFF36F8F1DB1C5
:1057A0002B46034830BC184730BC704760140020BB
:1057B000A4D9000010B4EFF31182202383F31288E0
:1057C000BFF36F8F1748016841F002040460C807F7
:1057D00007D482F31188BFF36F8F012010BC06F04D
:1057E0001DBF4FF08041D1F80C04D1F80C14C9074B
:1057F000EFD5EFF3118083F31288BFF36F8F0A495F
:105800000B6C03F0C00343F002030B6480F31188B8
:10581000BFF36F8F82F31188BFF36F8F002010BC2E
:10582000FFF7A2BFB01400206014002010B10128BF
:1058300004D07047034B1B6C5B0701D1FFF794BF8B
:10584000704700BF60140020024AC3B21C2003FB53
:1058500000207047601400202DE9F0413849BFF363
:105860005B8F0746012251E8003F41E800200028F5
:10587000F9D1BFF35B8F33B9324933484B60CB600A
:105880008A6004F0FCFA7B1E012B2BD8012F07D174
:105890004FF08043D3F81C3403F00303012B21D0D5
:1058A00007F052FD0546F8B9284B1B78E3B14FF0DD
:1058B00080430222C3F808230646DFF894804FF0A5
:1058C0008044D4F81824D4F81834D20315D503F042
:1058D0000303012B01D0012F0FD155B386F311889B
:1058E000BFF36F8FBDE8F081EFF31186202383F3C0
:1058F0001288BFF36F8F0125DFE7ADB1304604F0AA
:105900002FFCD4F81835002BDBD1D4F80421002A61
:10591000D7D0C4F80431D4F804310123C4F81835C1
:10592000C8F88031A360CCE70021212007F0C5FD35
:10593000E7E74FF080430222C3F80423D2E700BF19
:105940005C1400204C1400207C14002084170020DC
:1059500000E100E008B5074807F0D3FA38B106487F
:10596000FDF786F90448FCF755F9002008BD6FF0F3
:105970001200FBE704DA00007D5900000A2838B560
:10598000074D044604D1AB680D215B682846984753
:10599000AB6803485B68E1B29847204638BD00BF5A
:1059A00004DA0000F0B545681646A8682A7C01F0C4
:1059B0001F0487B044EA4214002869D0B6F5001FDE
:1059C00004D1214607F028F9002052E001AA002066
:1059D000B6F5800F0190506037D1B3F1007F14BF4E
:1059E000052304238DF804300023CDE90423039319
:1059F000EB6823FA01F111F001010DF103073AD12F
:105A0000B6F1A07F37D104F01F03620903F5E073FC
:105A100026D0012A3FD1214A52F82330DB072AD46D
:105A2000A8683A46214607F06DF816301BD0029759
:105A3000A86803AA214606F031FF002819DBA868F0
:105A40000122214607F095F8BEE7B3F1C06F05D0FB
:105A5000B3F1007F14BF01230223C3E70323C1E78F
:105A60004FF0A042D8E7A868394600F0C5FF0028EB
:105A7000DDDA07B0F0BDA8683A46214607F042F8E3
:105A80000028D5D19DF80310A86800F0AFFFCFE73C
:105A90006FF08500EDE751F82330FFDE0003005082
:105AA000420970B5034602D0012A17D070BD0D4ED1
:105AB000326951680029F9D003F01F0301250C68F1
:105AC0009D400029F2D08A682A4002D04B683046B7
:105AD00098472CB1236821461C46F2E7024EE7E7BF
:105AE0002346F8E7E4D90000C4D9000038B545687A
:105AF000A86890B107F035F8014670B9A86807F0BA
:105B000014F8044658B902460649A86806F0F7FF9B
:105B1000224605210620FCF799FE002038BD6FF0D3
:105B20000400FBE7A15A00002DE9F043476840F26A
:105B30000636D0063B7C87B002EA060654BFC2F3A5
:105B4000401C4FF0030C01F01F05B6F5837F14468F
:105B500045EA43158DF803C045D00DD8062E16D062
:105B600005D8A6B1022E40D06FF0150038E0B6F58A
:105B7000807FF9D101260AE040F20222964236D017
:105B8000B6F5407F35D0B6F5007FEDD10226012372
:105B9000220303FA01F12ED57B68C3F80815B86813
:105BA00090BB05F01F036D092BD0012D75D13D4A27
:105BB00002EB830284F48033D2F80017C3F300436E
:105BC000C4F3404444EA430421F4E16144EA8C0410
:105BD00021F0070144EA06230B43C2F800370020F6
:105BE00007B0BDE8F0830726D1E70426CFE70526F6
:105BF000CDE70326CBE7630344BF7B68C3F80C15EE
:105C0000CDE74FF0A042D3E70DF10202294606F09E
:105C100079FF14F4403F80460CD1B868294606F05D
:105C2000A6FFB8F1000FDAD19DF80210B86800F0B5
:105C3000DDFED4E74FF0000901ABCDE90199CDE9D4
:105C40000439CDF80C90B86803AA294606F026FE60
:105C50004845C4DB14F4003314D084F480349DF838
:105C600003308DF80E30C4F300448DF80C608DF8CD
:105C70000D40B8684B4603AA294606F0C7FE002827
:105C8000CFDAACE7CDE904330DF103030393B86831
:105C900003AA294606F002FEF1E703F5E07350F887
:105CA0002330FFDE00030050036803F01F025B098E
:105CB000026004D0012B034818BF002070474FF04A
:105CC000A0407047000300502DE9F04FDFF86091CD
:105CD000DFF860A185B01546834600EB810140F2F4
:105CE000FF18594503D1002005B0BDE8F08FDBF85F
:105CF00000305804C3F3C322C3F3080400F19180B9
:105D00001B0E19F80270444508BF4FF0FF34192BE1
:105D100000F28A80DFE803F00D141A1D20261D888A
:105D20008888883663888888888888888888667C98
:105D30007F82C5F80C45621C5ED10BF1040BD0E7E5
:105D4000C5F81445631CF8D000265FE0C5F8084587
:105D5000F1E7C5F81045F5E7661CC5F80845ECD035
:105D6000002604E0601CC5F80C45E6D0012603A817
:105D70000394FFF799FF039B012202FA03F3C0F893
:105D80000C3508E0C5F80845002FDBD1631CD4D0E2
:105D9000002632460627DBF80030019303F400406A
:105DA000002818BF002203A8009218BF0126039400
:105DB000FFF77AFF039C019B009A00EB8400C3F37A
:105DC000412CD0F800473B0243EA8C03134304EA1A
:105DD0000A04234343EA4603C0F80037ADE7C5F899
:105DE0000C45D1E7C5F86045621CDBF80030A4D053
:105DF000C3F30043002BB9D003A80394FFF754FF6B
:105E0000039B012606FA03F3C0F808353246C2E7C1
:105E1000C5F86445E8E7C5F86845E5E7C5F86C45A9
:105E2000E2E76FF015005FE76FF085005CE700BF09
:105E3000CFE60000F0F8FCFF036803F01F025B09E7
:105E4000026004D0012B034818BF002070474FF0B8
:105E5000A04070470003005073B5044600220121A2
:105E60001C20FCF7F3FC2369224A6168184606F0FF
:105E700065FF00283BDB636825691E6B01AA0021D2
:105E8000304606F0D2F8002805DB019B326819790C
:105E90001868FFF719FF002631462B6801F5AC7230
:105EA00053F82230002B0EDB01A80193FFF7C4FF4B
:105EB000019AD0F80435D34013F001031CBF01232D
:105EC0008B403343DEB201310429E6D100230120A7
:105ED0006268116A00FA03F232420CBF012200220A
:105EE000D20321F813200133042BF1D1002002B09A
:105EF00070BD00BF51C000002DE9F0410446476865
:105F00000D4607F021FA4FF0200888B9264B1B7880
:105F100073B16426606806F0E9F9F0B9012006F073
:105F20002AFB013EF6D10021212007F0C6FAF0E756
:105F3000EFF31186314688F31288BFF36F8F6068E4
:105F400006F0D4F9A8B986F31188BFF36F8FEFE795
:105F500086F31188BFF36F8FE5E7EFF311863146C3
:105F600088F31288BFF36F8F606806F0BFF90028CE
:105F7000EED0BB691D706368BA691B680020C3F866
:105F800044250122C3F84825C3F82001D3F8204155
:105F9000C3F85801D3F858019A6081F31188BFF310
:105FA0006F8FBDE8F08100BF8417002070B501231A
:105FB00083400E4ABFF35B8FDC4352E8001F01EAC7
:105FC000040542E80056002EF7D1BFF35B8F4FF473
:105FD000803282400648C0F80823BFF35F8FBFF3CA
:105FE0006F8F0B4214BF0120002070BDD014002021
:105FF0000010014070B40E49D1E90034D01AC31822
:1060000044F1000422F07F46C1E90034A6F50013F4
:10601000B3F5400F09D2074B1B681A0A1B069C19DF
:10602000054B42F10005C3E9004570BC02F0B4BE67
:1060300000090020D41400200809002011B3BFF388
:106040005B8F0123104A834052E800CF4CEA030CD7
:1060500042E800C10029F7D1BFF35B8F0B4A4FF430
:1060600080338340C2F80433094BBFF35B8F1B6856
:10607000BFF35B8FC340DB0742BF064B4FF40032D8
:10608000C3F80021704700BFD01400200010014069
:10609000CC14002000E100E00D4B1868010A000656
:1060A000BFF35F8F0B4BD3F80435181841F1000193
:1060B000B3F5801F0AD2084BD3E90023904271EB5D
:1060C000030303D210F1807041F10001704700BF5B
:1060D000D414002000100140080900202DE9F04FE1
:1060E00085B016461F469DF840A00446FFF75EFFA8
:1060F0000190FFF7D1FFB04271EB070354D23E4B42
:10610000301A67EB0101984271F100014FD23B4B0D
:1061100003EB0413D3E902239F4208BF96425ED0EB
:1061200037494FF4803804F1500508FA04F8AD00FF
:10613000C1F848832046ADB206F0FFF926F07F4B48
:1061400005F1804504F5A87305F58835DC464FF068
:1061500003090293029A2CF07F4341F82230C1F8E0
:106160004483D1F80435274A6FF00200C01A604416
:1061700020F07F40904232D9286868B1D1F80435C8
:106180000393A3EB0B0020F07F40B0F5000F26D95E
:10619000204606F0D2F9039BBAF1000F07D109EBB4
:1061A000030C09F10109D5E7BAF1000F09D06FF02E
:1061B000150520460199FFF741FF284605B0BDE8C7
:1061C000F08F0123104ABFF35B8FA34052E8000F0A
:1061D000184342E800010029F8D1BFF35B8F07495B
:1061E0000E98230101EB0412C8500F9B5360C2E9C3
:1061F00002670025DDE700BF01008000F0080020F5
:1062000000100140FDFF7F00CC1400207FB51C4C26
:106210001C4BC4F80833C4F848331B4B00254FF01F
:10622000FF304FF0FF31C4F80855C3E902014FF4C5
:106230008033C4F80433154B02264FF40032012199
:10624000C4F804631120C3F880212A46FCF7FEFA43
:106250001120FCF7CBFA0E4A0123A36023601360E0
:106260000C4B0D4A0093CDE9015500232846FFF75A
:1062700035FF3046FFF7F0FA284604B070BD00BF86
:106280000010014003000F00F008002000E100E0D2
:10629000D0140020F55F0000FFFF7F002DE9F743D9
:1062A0002F4CD4F8043399070BD5D4F8043143B1FB
:1062B0002C4A0023C4F80431D4F8043113680133A4
:1062C0001360D4F80433DA0329D5BFF35B8F264B70
:1062D00053E8002F22F0010143E800100028F7D115
:1062E000BFF35B8FD30702D4D4F84031BBB1002594
:1062F000C4F84051D4F84031FFF7CEFEEFF31182DD
:10630000202383F31288BFF36F8F184BD3E9026702
:10631000B042B94106D282F31188BFF36F8F03B048
:10632000BDE8F0834FF0FF384FF0FF39C3E9028931
:10633000D3E900101D604FF48033C4F84833C4F82B
:106340004051D4F8403182F31188BFF36F8F002998
:10635000E5D0009032463B4628468847DFE700BF3D
:1063600000100140D4140020CC140020F0080020BC
:1063700030B5431C124C85B005D08442A8BF0446FA
:10638000012CB8BF0124FFF787FE0E4B0C4DD3E95B
:106390000013401AB0F5000F10D22218AA4228BFED
:1063A0002A4652184FF0000007490091CDE901003C
:1063B00043F10003FFF792FE05B030BD2A46F0E737
:1063C000FFFF7F0000090020F55F000008B5FFF720
:1063D00063FE024B1B68C01A08BD00BF0009002005
:1063E000BFF34F8F0549064BCA6802F4E0621343BE
:1063F000CB60BFF34F8F00BFFDE700BF00ED00E0B3
:106400000400FA054FF08053D3F83021082A06D152
:10641000D3F83431052B02D8024AD05C70470020F3
:10642000704700BFF8E60000024AD2F80034002BA3
:10643000FBD0704700E0014010B54FF08053D3F817
:106440003021082A4ED14FF080420021C2F80C11B1
:10645000C2F81011C2F8381502F54042D3F80414FE
:10646000C2F82015D3F80814C2F82415D3F80C1478
:10647000C2F82815D3F81014C2F82C15D3F8141448
:10648000C2F83015D3F81814C2F83415D3F81C1418
:10649000C2F84015D3F82014C2F84415D3F82414D8
:1064A000C2F84815D3F82814C2F84C15D3F82C14A8
:1064B000C2F85015D3F83014C2F85415D3F8341478
:1064C000C2F86015D3F83814C2F86415D3F83C1438
:1064D000C2F86815D3F84014C2F86C15D3F84434E8
:1064E000C2F87035FFF78EFF18B13F4B3F4AC3F833
:1064F0008C26FFF787FF18B13D4BFB22C3F8182508
:10650000FFF780FF70B14FF080414FF08053D1F81A
:10651000E42ED3F8583222F00F0203F00F03134396
:10652000C1F8E43EFFF76EFF20B1324B4FF400722A
:10653000C3F840264FF08053D3F83031082B1AD1DE
:106540004FF08043D3F80024D20744BF6FF001021C
:10655000C3F800244FF08053D3F83431052B02D810
:10656000254AD35C3BB14FF01023D3F808224FF0FB
:106570008043C3F858254FF01021D1F80C32DB07C7
:1065800014D51E480123C0F80435FFF74DFFD1F89C
:106590000C3223F00103C1F80C32FFF745FF002352
:1065A000C0F80435FFF740FFFFF71AFFD1F80032BB
:1065B000002B03DBD1F80432002B14DA0F4901233E
:1065C0004FF01020C1F804351224FFF72DFFC0F85A
:1065D0000042FFF729FFC0F80442FFF725FF002320
:1065E000C1F80435DEE710BD0050004048810300CB
:1065F00000F0004000900240F2E6000000E00140A0
:10660000014B1860704700BFD814002010B5054B2F
:106610001868144605F0B1FF0028A4BF20700020C0
:1066200010BD00BFD8140020024A01238340C2F8E5
:106630000435704700F00140014B00201B681847EB
:10664000DC140020014B1B68184700BFDC1400203D
:1066500010B50C4C237993B9012323710A4B2060A8
:10666000002818BF184600F05DF850B923680748A5
:10667000002BBDE8104008BF184600F0A3B86FF02B
:10668000770010BDDC14002039660000456600006C
:1066900008B5064B1B682BB10020FCF7C9F808B9F8
:1066A000FCF7A4F8024B01221A7008BDDC1400208C
:1066B000821700204FF08053D3F83021082A06D1EA
:1066C000D3F83431052B02D8024AD05C7047002041
:1066D000704700BFFEE6000038B54FF0804401234C
:1066E000C4F8083363600023C4F80031D4F80031E3
:1066F00042F21075D4F80C24D4F80C34D20307D528
:10670000DB0705D5012005F036FF013DF2D138BD8C
:10671000FFF7D0FF0028FAD0014B00225A71F6E7AC
:10672000E414002010B508490C794CB90123086025
:106730000B71FFF7BFFF08B9002010BD4C71FBE7DC
:106740006FF07700F9E700BFE41400204FF08043BA
:106750000022C3F80021D3F80021094901221A6060
:10676000096811B1C3F804237047D3F80021002A47
:10677000FBD00022C3F80021D3F80031704700BFDE
:10678000E414002010B54FF08043D3F80423D2075F
:1067900015D5D3F8002192B10022C3F800210121C0
:1067A000D3F80021C3F80813FFF784FF044B10B19E
:1067B0005A7922B95971BDE810401B68184710BDBD
:1067C000E4140020074A137943B9012110601171C4
:1067D0004FF080421846C2F8183570476FF07700C6
:1067E000704700BFEC14002010B54FF080431D4CE3
:1067F000D3F81814D3F8182411F4803F19D002F0FC
:106800000302012A03D00AB105F021FF00224FF054
:106810008043C3F818250022C3F80421D3F80421CB
:1068200001229A60226872B9D3F80421002AFBD0B1
:1068300011E0D3F81424D107E8D5D3F81C2492072B
:10684000E2D422681AB10222C3F8042310BDD3F89F
:106850000421002AFBD00022C3F80421D3F804311C
:10686000F4E700BFEC140020F8B54FF08043194F57
:10687000D3F80443012504F01A04002604B9F8BD36
:10688000B4FA84F0C0F11F00830003F580739BB25B
:1068900003F1804305FA00F2196824EA0204002992
:1068A000ECD01E601B684FF080430128C3F808231A
:1068B0000CD1D3F81824D3F81824920706D1022259
:1068C000C3F81805C3F804239860D7E73B68C0B243
:1068D0009847D3E7EC140020036803F01F025B091C
:1068E000026004D0012B034818BF002070474FF00E
:1068F000A040704700030050034A430900F01F0006
:10690000D35C1844C0B2704704E70000034611F09E
:10691000010030B5CCB213D1A207C4F3400020D59A
:10692000124AD2F8200558604FF08053C2F8200573
:10693000D3F83031082B15D0003818BF012010E0F3
:106940004FF0A0414FF08055D1F820251A60C1F8D2
:106950002025D5F83051082D08BFD1F82015002A80
:10696000DAD030BDD2F82035E6E700BF0003005092
:10697000F7B504460846FFF7BFFF06B204EB46062C
:106980000D46B38ADB072BD5204605F064FF294668
:10699000204605F0CFFE58B1204605F0E1FE2768FD
:1069A00000B207EB80030022C3F81025C3F81025BE
:1069B0002946204605F0FDFE0021B18201A801957F
:1069C000FFF78AFF019B00EB8300074BD0F80027FD
:1069D000134043F00203C0F80037084603B0F0BD8F
:1069E0006FF01500FAE700BFF0F8FCFF014805F072
:1069F000E2BD00BF5404002010B504480C4605F069
:106A0000BCFD0028A4BF2070002010BD540400204D
:106A10002DE9F04F804689B058F804ABDAF804133A
:106A2000C9B28346082241F00041504605F0EBFE12
:106A3000051E2BDA0023032106A8CDE90633FFF754
:106A400065FF644B01930DF118090023019A00932F
:106A500012F8013B60490192DA0803F007038A5CEF
:106A600022FA03F3DA071AD4009B09F10409A3B14F
:106A70004FF000410022504605F0C5FE032106A854
:106A8000FFF744FF0028DCD125F000450124002D4C
:106A900040F08A8009B0BDE8F08F0123D6E7009B63
:106AA0004E4A13440293D9F800100029DCD0029B0F
:106AB00091FAA1F11C78B1FA81F141EA441420461F
:106AC000FFF71AFF0BEB40000594878AC808BB0844
:106AD00019F80020039301F00701012303FA01F1E3
