:1010000040320020512D0000D78F00003D2D000000
:101010003D2D00003D2D00003D2D00000000000092
:10102000000000000000000000000000B92E0000D9
:101030003D2D000000000000592E00003D2D000055
:10104000753000007530000075300000753000000C
:1010500075300000753000007530000075300000FC
:1010600075300000753000007530000075300000EC
:1010700075300000753000007530000075300000DC
:1010800075300000753000007530000075300000CC
:1010900075300000753000007530000075300000BC
:1010A00075300000753000007530000075300000AC
:1010B000753000007530000075300000753000009C
:1010C000753000007530000075300000753000008C
:1010D000753000007530000075300000753000007C
:1010E000753000007530000075300000753000006C
:1010F000753000007530000075300000753000005C
:1011000053B94AB9002908BF00281CBF4FF0FF316E
:101110004FF0FF3000F00CB8ADF1080C6DE904CED3
:1011200000F010F8DDF804E0DDE9022304B07047B8
:10113000704700BF034613F8012B002AFBD1181A91
:10114000013870472DE9F04786468C460846089ED0
:10115000154674461946002B40F0C2808542B2FA0B
:1011600082F245D94AB1C2F1200300FA02FC2EFAFC
:1011700003F3954043EA0C0C94404FEA154EA8B295
:10118000BCFBFEF8230C0EFB18CC08FB00F943EA6D
:101190000C43994528D9EB1808F1FF3704D299453B
:1011A00002D9A8F102072B44A3EB0903A4B2B3FBB5
:1011B000FEFC0EFB1C330CFB00F044EA0344A0428F
:1011C00014D92C190CF1FF3304D2A04202D9ACF18E
:1011D00002032C44241A43EA07401EB1D4400023E2
:1011E00034607360BDE8F0874746DDE76346F1E7AA
:1011F00092BB431B01214FEA154EAFB2B3FBFEFC7D
:10120000200C0EFB1C330CFB07F840EA0343984507
:1012100062D9EB180CF1FF3004D2984502D9ACF139
:1012200002002B44A3EB0803A4B2B3FBFEFC0EFBAD
:101230001C330CFB07F744EA0344A7424ED92C1990
:101240000CF1FF3304D2A74202D9ACF102032C44C3
:10125000E41B43EA0040C0E7C2F1200320FA03F197
:10126000954090402EFA03F303434FEA154EAFB278
:10127000B1FBFEFC0EFB1C10190C0CFB07F841EA3D
:101280000041884504FA02F422D969180CF1FF30B4
:1012900004D2884502D9ACF102002944A1EB08012F
:1012A0009BB2B1FBFEFC0EFB1C110CFB07F743EAE3
:1012B00001439F420ED9EB180CF1FF3104D29F423B
:1012C00002D9ACF102012B44DB1B41EA004192E759
:1012D0006046E3E76146F7E76046A3E76346B7E7A2
:1012E000834206D916B9002108467BE7C6E900E02B
:1012F000F9E7B3FA83F78FB9834201D3724508D86F
:10130000BEEB020460EB030301209C461EB90021E2
:1013100068E73846FAE7C6E9004CF8E7C7F1200C61
:10132000BB4022FA0CF41C432EFA0CF120FA0CF309
:10133000B84001434FEA14490EFA07F5B3FBF9F838
:101340001FFA84FE09FB18300B0C08FB0EFA43EA67
:1013500000439A4502FA07F240D9E31808F1FF303A
:1013600004D29A4502D9A8F102002344A3EB0A0350
:1013700089B2B3FBF9F809FB183308FB0EFE41EA0A
:1013800003418E452CD9611808F1FF3304D28E45F4
:1013900002D9A8F10203214443EA0040A0FB0298CD
:1013A000A1EB0E014145CE46434602D306D14D4541
:1013B00004D2B9EB020E68EB04030138002EA6D06C
:1013C000B5EB0E0261EB030101FA0CFC22FA07F304
:1013D0004CEA0303F940C6E9003198E74046C5E707
:1013E0004346D9E7014B1B68184700BFB0000020F7
:1013F000014B1860704700BFB000002030B585B0C9
:1014000004460D4610220021684608F0C2FC022363
:101410008DF802302A46044B01932146684606F0B7
:1014200077FE05B030BD00BFE513000080B505466E
:101430000E461746984606F097F9034608F014FD45
:10144000DFF81890044649F80030424630463946E5
:10145000A84754F8090001F0E9FC00BF08000000AB
:101460002DE9F047058B04462807904611D4022940
:1014700005F0070540F0CC80204607F00EFB78B160
:101480000138218B042811D8DFE800F0C2106D85E7
:10149000950001290CBF45F0100545F02005258376
:1014A00088F31188BFF36F8FBDE8F08701F0070A5A
:1014B000AA4500F0A5800027B9463E46A368002B48
:1014C00000F0BC8041F00801218388F31188BFF34C
:1014D0006F8FA168002900F0BA800D68002900F024
:1014E000B680D1F80480334652462046C047002DCE
:1014F00076D02B6829461D46F0E701F007035A1FF6
:10150000012A1BD8002221F00701062B276889B287
:10151000C4E9002209D13B4603E0628B01326283B9
:101520001B68002BF9D141F002012183204607F00E
:10153000B4FA00287AD041F0200176E0042B0AD1D9
:1015400021F0070189B22183204607F0A6FA10B1E5
:1015500041F020012183218B01F0070AAA454FD0D9
:101560000027B946AAE7236921F0070141F00601E7
:10157000062DD3F8009021832DD1B9F1000F3FD073
:1015800041F00801218388F31188BFF36F8F3A4936
:101590002046C84729E021F00701236941F00401F2
:1015A00089B2042DD3F804902183E6D000273E466B
:1015B0004FF0040A82E721F00701236941F0050199
:1015C00089B2052DD3F808902183D6D000273E4656
:1015D0004FF0050A72E700273E464FF0060A6DE716
:1015E0002B4687E7B9F1000FD1D1EFF31188202303
:1015F00083F31288BFF36F8F238B23F008032383B9
:10160000258BEA062ED525F01003238305F0070568
:101610006669218B002EBFF670AF00232768C4E9EE
:10162000003321F0070141F001012183218B01F0FA
:10163000070AAA454FF000097FF440AF002F9CD065
:1016400041F00801218388F31188BFF36F8F002FC9
:10165000C8D03D68394633465246204607F049FA1D
:101660002F46F4E7AB067FF51BAF25F0200323835D
:1016700005F0070500E700BF1F8B0000014B03606A
:101680000020704718A20000F0B40D4B0D4E5F6AA9
:101690000D4BB34203D36FF08500F0BC70475C681C
:1016A000BC420AD31D6945B194F802C08488E4B2F3
:1016B000A44502D12B46F0BC18472433E9E700BF0C
:1016C000D0060020300300200C0300202DE9F04755
:1016D000144CDFF85480DFF8549005460E46174648
:1016E000444503D36FF08500BDE8F0876268D9F800
:1016F00024309A4213D3A3698BB1A9889078C9B2D8
:10170000884205D13A4631462846BDE8F047184799
:101710005279012A03D13A46314628469847243463
:10172000DEE700BF0C03002030030020D0060020BD
:101730002DE9F0410B4CDFF8308005460E46174688
:10174000444502D36FF0850009E063690BB9243486
:10175000F6E73A463146284698470028F7D1BDE8D3
:10176000F08100BF0C0300203003002010B50446B8
:1017700007F0A0FC10F1780F00D050B9054A2046C0
:1017800007F033FBD2F8C43023EA0003C2F8C430B8
:10179000002010BDD0060020024B00221A605A60C3
:1017A000704700BF8B07002070B50B4B0B4CA3425A
:1017B00001D3002070BD196A1E7F00220439D5B202
:1017C000AE4201D82433F2E7013211F8325085429B
:1017D000F5D10120EEE700BF0C030020300300200C
:1017E00073B58488E4B263060D468DF8074007D0D0
:1017F0002046FFF7D9FF78B10D4B93F8BA0058B1E6
:101800000B4E204655B102F003FAF3691BB10DF1FE
:10181000070108209847012002B070BD02F020FAAD
:10182000F369002BF7D00DF107010920F2E700BFA3
:10183000D006002008B509480378C3F341130A33E2
:1018400050F823303BB100F1080200F11001984735
:10185000C043C00F08BD1846FCE700BFD0060020FB
:1018600004282DE9F14FDFF8989004460F4616D072
:1018700001282DD1DFF88C8098F8B93043B300F0FF
:10188000B1FD214D4D4520D2D5F820B04FF0000AD2
:101890002B7F5FFA8AF6B34204D82435F2E7FFF7CC
:1018A0007BFFE7E70BEBC6060AF1010A307907F088
:1018B00001FC0246307907F098FAD8F8C430002AC3
:1018C00023EA0003C8F8C430E2DA002388F8B9300C
:1018D0000D4D4D4508D30B4B1B6A6BB13946204665
:1018E00001B0BDE8F04F1847EB681BB13A462146FE
:1018F000284698472435ECE701B0BDE8F08F00BFDB
:1019000030030020D00600200C03002073B5867839
:101910008DF80060037942791C4C43EA0223ADF84C
:101920000230C378304603F003038DF8043007F02B
:101930005CFAD4F8C430184205460BD0304600F0AB
:1019400033FD3046FFF712FF08F0BEF810B99620BD
:1019500005F0C8FE684602F037F910F1780F03D0A1
:1019600010B1002002B070BD9DF8000002F0B4F983
:1019700010F1780F01D00028F3D1D4F8C430012041
:101980002B4384F8B900C4F8C430EBE7D00600203C
:101990002DE9F047A44DAB6904460E461746C3B97E
:1019A000207800F01F00012877D0022800F0DE80A8
:1019B00000BB94F900103A68637800292EDA062BF0
:1019C0000CD0082B25D0ABB9537001231370022320
:1019D00006E198470028E3D100200DE06388190A4A
:1019E0000A1F012A8C4605D9072903D8DAB26B6A87
:1019F0001C781CB96FF01500BDE8F0875D7865456F
:101A000003D1824200F0E78001302344F0E71B78E5
:101A1000E6E095F8BA3013700123E1E0052B11D010
:101A2000092BE7D163886E6A002B33D1FFF7B4FE30
:101A3000638885F8BA30EB69002BCDD07B49032051
:101A40009847C9E76088C0B202F0ACF80028C3D05C
:101A5000D0E77378042B10D0052B11D0022B04D1C2
:101A600077796388BB4208BF012033781E443378FE
:101A7000002BEED10028BDD0D8E796F80380F4E71C
:101A80006388BB42F1D1B8F1000FEED13046FFF7C9
:101A90003DFFEAE7FF27B846E9E795F8BA30D7F8FF
:101AA00000C0002BA6D0A2886F6A5FFA82FE3B4678
:101AB000187800289ED05978022904D193F8048020
:101AC000F04500F28F800344F2E78CF800308CF888
:101AD0000130316080E71F4490E00B2B8AD1002653
:101AE0004FF0FF08C146B24606E07B78042B0FD0CA
:101AF000052B21D03B781F443B78002BF5D1EB69B7
:101B000013B1514607209847002E7FF465AF71E767
:101B100097F80280A38897F803909845EAD16388E4
:101B20009945E7D1B8F1070F1DD805EB0803BA4670
:101B300083F8BB900126DDE7A3884345DAD16388AB
:101B4000DBB24B450AD0BE78304600F02DFC304663
:101B5000FFF70CFEB0FA80F67609CBE73846FFF7C0
:101B6000D5FE0646C6E7BA460026C3E794F900202C
:101B70006378002A19DA002B7FF43CAFA3883F6812
:101B8000DCB25B060AD02046FFF70EFE00283FF4C9
:101B900031AF95F8BA30002B3FF42CAF39462046D0
:101BA00002F07EF800237B7011E7012B08D0032B95
:101BB0007FF420AF6388002B7FF41CAF012103E08A
:101BC000618800297FF416AF2046FFF709FE002840
:101BD0007FF402AF0EE702293B607FF418AF5B8809
:101BE0003360F9E694F9000063780028BFF675AF1A
:101BF000002B3FF46AAF0A2B7FF4FCAE3B78002B3E
:101C00003FF4F8AE797804297FF465AFB9788A4259
:101C10007FF461AF072A96BF5219002392F8BB30B8
:101C20008CF80030F8E600BFD00600208A070020BC
:101C300013B5164C237DF3B9E268A168019201AB9C
:101C4000802007F0E0F8019AA3681344A360E368DA
:101C50009B1AE3606BB962B12369E2889A4208DD9E
:101C600094F8C82093FBF2F102FB11330BB9012366
:101C7000237502B010BD00231A4619468020237533
:101C800002B0BDE8104002F051B800BFD0060020FD
:101C900030B585B0002302460D460193002858D187
:101CA000002935D108220B460DEB020107F01BFA83
:101CB000002804DA802001F0ABFF05B030BD2A4CCB
:101CC000029A2260039A626004F13802A2609DF9D0
:101CD0000820BDF80E302575002AC4E903550ADB3B
:101CE000802B04D9802001F093FF0020E3E713B19B
:101CF000C4E90333E1E7FFF79DFD0028DAD0E2886D
:101D000023699A42D4BFE260E360FFF791FFD4E712
:101D1000154CD4E90215002D01AB04DC07F0E3F902
:101D20000028CADAC6E72A4607F0DDF90028D9DB21
:101D3000019AA3681344A360E3689B1AE360002B35
:101D4000BBD104F13803A360FFF774FD0028DCD198
:101D5000B0E78028B1D1044BDA68002AD5D11B7DC9
:101D6000002BD2D1A9E700BFD0060020054B064AC0
:101D70009A62064ADA62064A1A63064A58629A6109
:101D800000207047D006002091190000891600003D
:101D900031170000CD1600002DE9F3410446474DF0
:101DA00047484FF0FF334FF0FF3204F0F3FE95F851
:101DB000B830002B7BD16B6A83B142482C62E8615A
:101DC0006E6A02F0CDF801F0BBFE041E10DA3C484A
:101DD00004F058FF204602B0BDE8F08100F0BEF8E4
:101DE000FFF7C4FF6B6A002BE7D14FF0FF34EEE73B
:101DF00000F01AFB041EEADB7378012B5AD1F37949
:101E0000002B57D00026684685F8C830ADF8023060
:101E10008DF804608DF8006001F0D6FE041ED6DB5C
:101E2000802768468DF8007001F0CEFE041ECEDBE0
:101E30002549304602F080F8041EC8DB22493846A6
:101E400002F07AF8041EC2DB204CDFF8848044459F
:101E50001AD3002001F040FF041EB8DBD5F8C430CF
:101E6000802043F00103C5F8C43001F035FF041EA3
:101E7000ADDBD5F8C43043F48033C5F8C43001235A
:101E800085F8B8300024A2E7276A0026227FF3B243
:101E90009A4201D82434DAE707EBC30257F833102B
:101EA000107902F049F801360028EFD09DE76FF075
:101EB00077048CE76FF0150489E700BFD006002097
:101EC0003402002061180000911C00000C03002067
:101ED0003003002030B51F4B8BB005AA03F110056D
:101EE00018685968144603C40833AB422246F7D138
:101EF0001B7823701022002101A807F04AFF12224C
:101F00000021154807F045FF102101A807F0EEF960
:101F100000281BDD0828B8BF0820093801AB0E498E
:101F20001A18002012F8013F0AAC04EB131403F056
:101F30000F0328336B44013014F8144C13F8143C8D
:101F40000C7008284B7001F10201EBD102480BB074
:101F500030BD00BFB4A30000A91B00202DE9F04F45
:101F6000724B93F800B087B0BBF1000F03D07048FC
:101F700007B0BDE8F08F6E4C00264FF0011AB04656
:101F80003546B14623783BB96A4B02349C42F3D1C3
:101F9000664A01231370EAE76378052B1BD8DFE854
:101FA00003F08E03C38E1D39402304A88DF810B0B2
:101FB000ADF812308DF814B007F067F840B108237F
:101FC00004A8ADF8123007F060F808B1ADF812B00F
:101FD000BDF81230E37123781C44D3E7E378002B7B
:101FE000F9D1A3786BB108F101085FFA88F8F2E73C
:101FF0006B689C4207D024354F4B9D42F8D300209C
:10200000B6E74E4DF8E7AB68002BECD041462046D2
:102010009847E8E7002DF2D000222B7F9A42EED2BB
:10202000296AA07801EBC2010B79984201D00132F4
:10203000F3E70127E07800F003008DF81400207921
:1020400094F805C040EA0C20ADF8120094F90200A3
:102050000028FBB228DA07F110004FF0010C0CFA4F
:1020600000F010EA0A0F26D143F080008DF810002E
:1020700004A8CDE90213019207F007F8DDE9012178
:10208000039BC0B99DF81020A27012F0800F18BFFA
:1020900010330A7118BFDBB24FF0010214BF9A402F
:1020A000BA404AEA020A96E70120B84010EA0A0F4D
:1020B00001D11846DAE70137102FBBD1B7E7032E5D
:1020C0001AD1FFF707FF074650B1FFF733F8024672
:1020D00030B11028A8BF10223946A01C07F04BFED3
:1020E00023786FF00201E218091B04EB5303D1427D
:1020F00013D50136F6B26EE7002EF1D1B9F1000F1B
:102100003FF47DAFA4EB090389F80230C3F3072342
:1021100089F8033089F80480EBE702F801BC13F872
:10212000010902F8020DE2E7A14654E7A81B0020CE
:10213000680200200B030020300300200C03002065
:1021400010B5094B00211A461C78844204D15C6802
:1021500014B102EB811010BD0131042903F14003D9
:10216000F2D10020F7E700BF9C0700202DE9F341E2
:1021700050F8283C10F82C6C103304460AD103693F
:1021800050F8202C980736D5D2B9590715D5002319
:1021900044F8283C54F8283C10330BD054E9077518
:1021A00054F8148C07F090FC00284FD02E4821469C
:1021B00007F06EFC02B0BDE8F08143F00403236138
:1021C00054F8241C01AB304606F01DFE10B16FF030
:1021D0001503DDE7019A54F8243C134444F8243CE9
:1021E00054F8203C9B1A44F8203C54F81C3C1344FF
:1021F00044F81C3CCEE754F8241C01AB304601F0F7
:1022000011FE0028E3D1019D54F8243C2B4444F8EE
:10221000243C54F8203C5B1B44F8203C54F81C3C04
:102220002B4444F81C3C002DB1D0304601F09EFEFA
:10223000B5FBF0F303FB1055002DA8D154F8203C5A
:10224000002BA4D0304601F035FEA3E744F8180C6B
:10225000A4F1100004F098FD002DABD042463946A1
:102260003046A847A6E700BF300300204B1E012BD5
:1022700073B506460D460FD8FFF762FF044668B9EE
:10228000012D09D101AB01220DF10301304601F00E
:10229000C9FD019B002BF5D102B070BD07F014FC05
:1022A00004F12C0108B1012D05D1084602B0BDE8AA
:1022B0007040FFF75BBF034802B0BDE8704007F015
:1022C000E7BB00BF300300202DE9F74F0646019120
:1022D0001546984606F0E2FD044600285BD1EFF370
:1022E000118A202383F31288BFF36F8FDFF8ACB01D
:1022F00000220023584604F07BFD70B9DFF8A0905F
:10230000A70109EB8414636813F1100F14D1019332
:10231000584604F039FD019B06E00134042C0BF112
:10232000400BE5D16FF00B038AF31188BFF36F8F79
:10233000184603B0BDE8F08F019B2061C4E9023567
:102340000C9B63610D9BA36130466FF00F0309F88E
:102350000760C4F83C80636001F008FE58B1304665
:1023600001F004FEB5FBF0F303FB10551DB1E36B68
:1023700043F00403E36318F0020F07D007F12C01C8
:102380000848494407F084FB0023CDE7304601F0BC
:1023900091FD0346C8E76FF00F03C9E7B8070020B7
:1023A0009C0700203003002010B5EFF31184202398
:1023B00083F31288BFF36F8FFFF7C2FE50B14368FB
:1023C000103307D16FF08B03436000F12C010448F8
:1023D00007F05EFB84F31188BFF36F8F10BD00BF61
:1023E00030030020F8B50E4C04252027EFF31186AA
:1023F00087F31288BFF36F8F6368103307D16FF0D4
:102400008B030848636004F12C0107F041FB86F35D
:102410001188BFF36F8F013D04F14004E6D1F8BD90
:102420009C0700203003002070B50A4C0A4E00259E
:102430003146204607F010FB0122A4F1100011469E
:10244000013507F0CDFA042D04F14004F0D100204D
:1024500070BD00BFC80700206D2100000169012385
:1024600081F84B300B6833B191F849301BB1024809
:10247000083107F00DBB70473003002001690123CC
:1024800081F84A300B6833B191F848301BB10248EB
:10249000083107F0FDBA70473003002070B50569B8
:1024A000EFF31186202383F31288BFF36F8FD5F8E3
:1024B000900006F057FC044686F31188BFF36F8F37
:1024C00030B104480022002305F1180104F0F8FDA2
:1024D000204670BD3003002070B5012382F84830DB
:1024E00013680D4614463BB192F84A3023B10E48AA
:1024F00002F1080107F0CCFAD4F890305A89DB8851
:102500009A4205D17DB904F1180140F6CD4204E0AC
:1025100004F11801002DF8D00022BDE870400248F7
:10252000002304F0CDBD70BD3003002070B50E4611
:1025300081880446C9B21548154606F08BFC10B3D5
:1025400094F900206378002A16DB202B04D0222B7C
:102550000ED06FF085000AE02B681A6840F8102C46
:102560009A8820F80C2C9B7900F80A3C002070BD5A
:10257000638800F8093CF9E7212BEAD110380723DA
:1025800028603360F2E76FF01200F0E79C0800204B
:1025900008B50146034806F06BFC10B1012300F8B2
:1025A000073C08BD9C0800200D4A03460021A0F806
:1025B00048101068C3F8940090889279A3F89800A6
:1025C00083F89A2083F89C1083F89B10A3F89E1040
:1025D00083F8A010402203F14C0007F0DABB00BFE3
:1025E00000A2000010B504690023C4F8A8300C4B09
:1025F000C4F8A400596804F1A80269B9C3E900222B
:1026000004F10800074907F027FA04F11800064909
:1026100007F04EFA002010BD0A605A60F0E700BFD4
:102620009C080020C78E00009D26000073B5046939
:102630008DF80710002384F848302025EFF3118629
:1026400085F31288BFF36F8F0122D4F890000DF14B
:10265000070106F087FB86F31188BFF36F8F01280F
:102660000AD007F031FA10B994F8A1306BB9094BD0
:102670001A780AB901221A702122002304F11801E4
:10268000054804F01DFD02B070BD0021212007F0B7
:10269000BBFAD3E7BB1B002030030020F0B5D0F815
:1026A0008C305B681B6A1F7D85B00546384606F096
:1026B000F5FB064650BB95F886303BB3A86F014644
:1026C000C38831F80A2F9B1A9BB2B3F5806F28BFDD
:1026D0004FF4806303AA06F0F6FA0446B0B183060D
:1026E000A5F1180308BF00F1FF3485F830600193AD
:1026F000074B03990093224602233846FFF7E4FD77
:10270000A86F224600F10A0106F013FB05B0F0BDE8
:10271000D924000037B514460A1E054621DDD4F839
:102720008C0004F14C0106F01DFB012384F84930B4
:1027300023683BB194F84B3023B1114804F10801F0
:1027400007F0A6F9D4F88C209388918912695B1A56
:102750009BB2D31A3F2B04D8012384F8A03003B0D6
:1027600030BD94F89E30002BF9D0064B00930194B5
:102770000123402204F14C012846FFF7A5FDEEE7B6
:102780003003002015270000F7B50D4601461D480F
:1027900006F054FB044610B30646691E56F8A439E9
:1027A0005F6805291BD8DFE801F01C1A031C2226EC
:1027B00010F8061C99B9012300F8063C3B6A324622
:1027C000187BFFF7A7FF14F85C2C42B93B6A187D11
:1027D0000D4B0093019602231146FFF775FD03B0E0
:1027E000F0BD304603B0BDE8F040FFF7DDBE012389
:1027F00004F8053CF3E710F8053C002BEFD000236C
:10280000F6E700BF9C080020D924000037B5094D29
:102810000949002400944FF0FF334FF480622846AA
:1028200004F00EFC0549284607F054F9204603B091
:1028300030BD00BF30030020001C0020D8A30000E2
:1028400008B5044806F001F9BDE80840024806F062
:10285000FCB800BFE1A3000016A40000014805F089
:10286000AFBA00BF18A2000038B5044618B90F4B24
:102870000F485B6898476168B1F5683F10D0B1F5C3
:10288000680F0DD00B4DA9420AD011F46861206881
:1028900007D00146084806F0C7FF002323606560A3
:1028A00038BD142207F075FAF9E700BF5C0100207B
:1028B00044A400002C5F5CA9A40D002008B520B33F
:1028C0004368B3F5683F10D101220368BFF35B8F03
:1028D00053E8001F002903D143E800200028F7D166
:1028E000BFF35B8F0DD1002008BD094A93420AD087
:1028F00000684FF0FF324FF0FF3304F04BF900282F
:10290000F1D00448F0E70448EEE76FF4E040EBE76D
:102910002C5F5CA9E98FFFFFEA8FFFFF08B5D8B1F4
:102920004368B3F5683F10D100220368BFF35B8FA3
:1029300053E8001F012903D143E800200028F7D104
:10294000BFF35B8F0BD1002008BD074A934208D02C
:10295000006804F097F9F6E76FF4E040F4E7034805
:10296000F2E70348F0E700BF2C5F5CA9E98FFFFFA7
:10297000EA8FFFFF10B5044618B91D4B1D485B6870
:1029800098476368B3F5683F2FD0B3F5680F2CD034
:10299000194A934219D1236803BB18484FF0FF32FC
:1029A0004FF0FF33214604F0C7F808B923681BB97C
:1029B0000F4B13485B68984720681422002107F0EA
:1029C000E8F94FF46863636008E0B3F5683F0DD839
:1029D0003A2B03D040F6BA629342DED1206806F06B
:1029E0006DFF636843F03A03636010BD054AF3E787
:1029F0005C01002044A400002C5F5CA9A40D002011
:102A00006AA400003A00003A08B506490648402387
:102A1000142206F0FBFEBDE808400449044805F016
:102A200041BA00BFA4080020A40D002020A200008D
:102A300034A2000030BFFFF7FDBF00BF2DE9F04119
:102A40000B4EDFF8308006EB0807CC1B05463246FC
:102A50000949204607F08FF9A01942460021083C99
:102A600007F097F92C6707F10800BDE8F08100BF77
:102A70000000000004000000F4A10000054B5A69AA
:102A80009B689A421FBF044A536843F080535360C7
:102A9000704700BF9C19002000ED00E070B5264B88
:102AA00015469A6A12F0100F9A6A14BF1124102466
:102AB00012F0080F9A6A18BF1224920706460AD528
:102AC000586B9A6A140634D519B19A6A22F08002BA
:102AD0009A62132401E06FF01500174B9A6A12F006
:102AE000010F9A6A18BF142412F0200F9A6A18BFB7
:102AF0001524D20602D49B6A9B070AD50E4B5B684D
:102B0000190506D5314600F06FFA10B180F3098837
:102B10000224094B9A6A920642BF5A6A22F4005272
:102B20005A629A6A42F0FF029A6200232B70204692
:102B300070BD6FF01500CCE700ED00E0134B9A6A12
:102B400012F0007F9A6A14BF1E201D2012F0807FB1
:102B50009A6A18BF1F2012F4002F9A6A18BF21200A
:102B600012F4802F9A6A18BF222012F4003F9A6A4A
:102B700018BF232012F4803F9A6A6FEA02426FEA7C
:102B800012429A6218BF2420704700BF00ED00E097
:102B900010B5194B0246986A9C6A10F4805F14BF06
:102BA0001720162014F4006F9C6A18BF1820A40583
:102BB00009D5986B986A000404D51AB19A6A22F470
:102BC00000429A6219200C4B9A6A12F4806F9A6A3A
:102BD00018BF1A20D2050CD49B6A13F4005F18BFEB
:102BE0001C20054A936A43F47F43936200230B70D1
:102BF00010BD1B20F5E700BF00ED00E0F0B5484B2D
:102C00005B688BB00446C3F30803002585F3118885
:102C1000BFF36F8F02F07F40B0F17F4F11D102F010
:102C20000C0008280DD010074CBF0C4601250022CF
:102C3000033B8DF80720032B05D8DFE803F024635E
:102C400067602C46F3E700239DF80720CAB902AE5F
:102C500004F1200720686168324603C20834BC4290
:102C60001646F7D1099A002D54D0C2F3080121B9B4
:102C70006FEA52226FEA4222099202A9184606F030
:102C8000A0F90BB0F0BD264BDA6A9107DBD4DA6A03
:102C9000002AD8DBDA6A5200D5D55A69A16942F414
:102CA00080725A61BFF34F8FBFF36F8F5A6931F84B
:102CB000021C22F480725A61BFF34F8FBFF36F8FF3
:102CC0004DF6027291420AD09A6AD2B24AB10DF11F
:102CD000070201212046FFF7E1FE0346B4E723681F
:102CE000B2E79A6A12F47F4F05D00DF10701012077
:102CF000FFF74EFFF1E79B6AB3F5803FA3D3FFF7E1
:102D00001DFFEAE70DF107020021E3E70DF10701DE
:102D10000020EDE722F4FF7222F00102ACE700BFD1
:102D200000ED00E0044B5A6942F010025A615A6902
:102D300022F008025A61704700ED00E0EFF30880CE
:102D4000EFF3098101B57246FFF758FF01BD00BFDF
:102D5000002080F31488BFF36F8F0F4880F308883A
:102D600002F0D0FE00200D490860BFF34F8F00F045
:102D70002BF8202080F3118809484FF40461401893
:102D800080F30988EFF314800221084380F314884C
:102D9000BFF36F8F00F0F8F84032002094ED00E0B0
:102DA000802400200749D1F890200023C2F3072295
:102DB0001846934200DB7047C1F89830C1F8A00074
:102DC0000133F6E700ED00E008B572B6002383F3A7
:102DD0001388FFF7E7FF144B4FF0FF32C3F8802052
:102DE000C3F88420C3F88820C3F88C20C3F890204F
:102DF000C3F89420C3F89820C3F89C20C3F880211E
:102E0000C3F88421C3F88821C3F88C21C3F890212A
:102E1000C3F89421C3F89821C3F89C2162B6BFF38C
:102E20004F8FBFF36F8F08BD00E100E0084B9B6838
:102E300083420BD1EFF3058343B1064B5A6842F04E
:102E400080525A605A6A22F400425A6204F092BCDC
:102E50009C19002000ED00E014498A684FF0300012
:102E60001044EFF3098C80E8F01F202080F31288D3
:102E7000BFF36F8F0E4F4FF000664A698A603E6065
:102E8000106F0C4C2060506F0023536780F3118843
:102E900004B5104600F00CF9BDE8044002F1300022
:102EA00090E8F01F8CF30988704700009C190020FF
:102EB00004ED00E0C00D00201EF0040F0CBFEFF386
:102EC0000880EFF30980816911F8021C0229FFD004
:102ED00001B5724606F07BF801BD00BF40B2002884
:102EE00007DB044A4109012300F01F00834042F838
:102EF0002130704700E100E040B200280CDB4309BC
:102F0000064900F01F0020330122824041F82320AF
:102F1000BFF34F8FBFF36F8F704700BF00E100E03A
:102F2000054B420900F01F0053F82220012303FA49
:102F300000F01040704700BF00E100E040B2002800
:102F4000A8BF00F1604001F10101B8BF064B4FEA94
:102F50004111ACBF00F5614000F00F00C9B2B4BF31
:102F6000195480F80013704714ED00E0044B054A33
:102F700023F07F039360BFF34F8FBFF36F8F7047D2
:102F80000010000000ED00E008B5FFF7EFFF074A72
:102F9000D2F8883023F47003C2F8883003F00EFDB5
:102FA00004F01CFD00F05AF803F04CFD00ED00E0C9
:102FB00042F8203C009B42F81C3C0A49019B42F825
:102FC000183C029B42F8143C21F001014FF0807341
:102FD00042F8043C42F8081C0023203A026543678B
:102FE000704700BF2D140000094A0346906870B175
:102FF00013F1160F006E05D0A0F140029A4205D8D9
:10300000834203D2814228BF0020704700207047CE
:103010009C19002008B51546094A0A4B9060026FBA
:103020001A600E4600F044F82C4686F3098800200A
:10303000054B98472046002100220023034C2047DF
:103040009C190020C00D0020ED8F00002D14000001
:10305000014B10221A61704700ED00E00448002384
:103060002021C2180133302B82F80013F9D17047A8
:1030700000E100E008B5EFF30583064A103B02EBE0
:10308000C30152F8330049688847BDE80840FFF79C
:10309000F5BC00BFAC9F0000024B034A034801216E
:1030A00000F076B8000004200000002044A20000D8
:1030B000026E054B403A1A60044A4021C3E90112EE
:1030C0001846012100F06EB8C40D002000000B1559
:1030D000084AC2F898000B6823F01F03034343F02B
:1030E0001003C2F89C308B6843F00103C2F8A03093
:1030F000704700BF00ED00E02DE9F043DFF860808D
:1031000085B00E461F4604464FF00009B14523DA4C
:103110006068D8B13FB1411E08421BD11F2819D9A0
:103120002368194216D12368019305F082FFA36832
:1031300003430393D8F89050C5F30725D0B2013D5F
:10314000A84207D801A9FFF7C3FF421C09F10109F2
:103150000C34DBE76FF01502104605B0BDE8F083D4
:1031600000ED00E0044B0522C3F89420BFF34F8F1D
:10317000BFF36F8F704700BF00ED00E0BFF35F8FBC
:10318000024B0022C3F89420704700BF00ED00E01E
:1031900010B5034C01232278FFF7AEFF207010BD5D
:1031A000BC1B002008B50B4A00231278FFF7A4FFD0
:1031B00010F1160F07D0084A0021D2F89030C3F35F
:1031C0000723984200DB08BDC2F89800C2F8A0109F
:1031D0000130F2E7BC1B002000ED00E02DE9F043D8
:1031E000534B544CD3F890302568C3F307239D42CA
:1031F00085B000F29A80FFF7C1FF00200C268542BF
:103200001AD14D4C4D4F25706846FEF737FADFF85E
:103210002081DFF82C9106460025AE4213D1237899
:1032200043490020D1F89020C2F30722934276DB75
:10323000FFF798FF002042E0616806FB0011FFF7EE
:1032400047FF0130DBE7009800EB05114FEA051C52
:10325000CB683B40B3F5000F48D00AD8B3F5001F48
:1032600030D0B3F5800F36D0B3F5801F10D00135C4
:10327000D3E7B3F1807F42D0B3F1007FF7D150F8AC
:103280000C3088684A6805F0D4FE40F4802009E0DC
:1032900050F80C3088684A6805F0CBFE40F0885042
:1032A00040F43020CDE901230390D8F89030207805
:1032B000C3F30723013B98422AD96FF0150005B0EC
:1032C000BDE8F08350F80C3088684A6805F0B1FE1C
:1032D00040EA0900E6E750F80C3088684A6805F0D3
:1032E000A8FE40F0C06040F40030DBE750F80C303E
:1032F00088684A6805F09DFE40F08270D2E750F879
:103300000C3088684A6805F094FE40F08870C9E780
:1033100001A9FFF7DDFE237801332370A7E7C1F889
:103320009830C1F8A00001337CE74FF0FF30C6E7CA
:1033300000ED00E050A20000BC1B00200000F0FFE8
:103340000000081108B5024B1B689847002008BD13
:10335000D00D0020034B044A1860937843F0020319
:1033600093707047D00D00201401002008B5064965
:10337000064821F00701C1F1005202F5802205F054
:103380000AFB002008BD00BF47410020D40D0020EB
:103390000E4A0123C2F840354FF080424FF0805171
:1033A000C2F87835D1F83001082808D1D1F83411A5
:1033B000052904D80648415C09B1C2F838364FF0F7
:1033C00080430122C3F880250020704700E00140BF
:1033D000A6A4000020B1034B800143F0010318476D
:1033E000704700BF10A200004FF08043D3F8403672
:1033F000DB072ED54FF01023D3F8043303F0070377
:10340000072B26D1144A0123C2F80435D2F8003420
:10341000002BFBD04FF01021D1F8043323F0070329
:1034200043F00403C1F804330023C2F804350A4A08
:10343000D2F80034002BFBD0BFF34F8F0749084B65
:10344000CA6802F4E0621343CB60BFF34F8F00BF42
:10345000FDE70020704700BF00E0014000ED00E004
:103460000400FA05020600F07F0312D5082B05D1EF
:10347000010700F00F0306D50E48704710F0780FD3
:1034800012D100F00F034C2000EB43100A4B1844FC
:103490007047082B05D1020700F00F0306D5074837
:1034A000704710F0780FF6D000207047044800EB0A
:1034B000431070472C0F0020E00D00204C1000201E
:1034C0004C0F00200149024806F0E2BA080E002025
:1034D000D00300200146014806F077BA58020020C8
:1034E00002480022002303F01DBC00BF5802002048
:1034F00013B5124800F0C4FE114B98421AD111487E
:1035000003F026F90024104803F068F90F49104829
:1035100000944FF0FF334FF4806203F091FD0D49AA
:103520000B4806F0D7FA0C480C4906F095FA2046ED
:1035300002B010BD6FF00400FAE700BF453700008D
:103540000000AD0BBAA4000070A2000040200020D3
:10355000D0030020ACA40000080E00206138000059
:1035600010B50E49BFF35B8F002351E8002F012AED
:1035700003D141E800300028F7D1BFF35B8F0CD1B5
:1035800051F8044C1439204605F064FB783004D11E
:103590002046BDE8104005F039BB10BD000E0020EC
:1035A00038B5002464F07F00C0B2FFF75BFF013440
:1035B00005F054FD082CF5D10E4D0024E0B2FFF7C4
:1035C00051FF036903B90561013405F047FD082C7B
:1035D00005F14005F2D1084805F040FD074BD3F84E
:1035E0007C2212B9064AC3F87C22064805F036FD53
:1035F000002038BD701400202C0F0020E00D0020AA
:10360000701000204C10002010B5054CFFF768FF2B
:1036100020B14168204606F007F9F7E710BD00BF6A
:10362000C801002007B500230E48002201A903F0BD
:1036300083FA90B1FFF7E8FF0A480022002301A9AE
:1036400003F07AFA38B90198042340600374FFF755
:1036500041FFFFF737FF002001E00198406003B011
:103660005DF804FBC8010020022810B511D8094BF1
:103670001C5CFFF7D7FF60B1002202740472FFF7F1
:1036800029FF054B93F824301BB1BDE81040FFF72C
:1036900019BF10BDB7A40000E00D0020F8B5877871
:1036A00006463846FFF7DEFE3B06F578044612D59F
:1036B000002D43D1FFF7B6FF034600283ED001227C
:1036C000A5770274032202739C60FFF703FFBDE835
:1036D000F840FFF7F7BE4DB1012D2FD1FFF7A2FF44
:1036E000034658B3657705740573EDE7FFF79AFF56
:1036F00020B3B278124B12F0800F02F0080111D003
:1037000041B1D3F8A836E3600123037402230373A5
:103710008460DAE702F00F02142101FB0233D3F8D0
:103720000836F0E711B1D3F8A837ECE702F00F0242
:10373000142101FB0233D3F80837E4E7F8BD00BFDA
:1037400000700240F0B5064689B01422002103A89B
:1037500006F01FFB3378013B052B21D8DFE803F08F
:103760007A0314146A1603238DF814300024FFF72B
:1037700059FF0346A0B1047400F10802DDE9050118
:1037800082E8030018461DE00423EDE7B7783846C9
:10379000FFF768FE837A044623B1013B022B43D92D
:1037A00009B0F0BD3B06F57813D5002DF8D1FFF731
:1037B00039FF03460028F3D00122A57702740322C3
:1037C00002739C60FFF786FE09B0BDE8F040FFF78A
:1037D00079BE55B1012DE3D1FFF724FF0346002840
:1037E000DED0657705740573EBE7FFF71BFF07462F
:1037F0000028D5D00123037402230373846004F1ED
:103800000C01B07805F08BFC134AE168B2F88C32F9
:103810008B4206D95B1AA2F88C3201F07FF8384649
:10382000D0E7A2F88C52FAE7304609B0BDE8F04084
:10383000FFF734BF01A801F04FF89DF80530052BC4
:1038400004D19DF8043013F0600FA9D0034B059309
:1038500001248CE702248AE7E00D00204C0F0020B1
:103860002DE9F043A64CDFF89C9285B08046FFF727
:1038700037FE074610B905B0BDE8F08394F825304F
:103880003A7C3BB9002A00F0878079689D4805F0B2
:10389000CBFFECE7042A43D8DFE812F07E000500F6
:1038A0000101170140013B7BBD68032B38D8DFE8DD
:1038B00003F0023E5B606E69934B002232607260DF
:1038C000D3F880143170D3F884147170D3F888144D
:1038D000D3F88C0441EA00217180D3F89014D3F816
:1038E000940441EA0021B180D3F89814D3F89C34B1
:1038F00041EA0323F3800823EB6030687168834B4F
:1039000003C311462B68687A984796F90030002B5C
:1039100009DBF3889AB232B1A4F88C3200F0FEFFD2
:1039200079684846B3E70023A4F88C32F8E76B7F48
:10393000002BF5D02B7F002BF2D000266E774FF0B6
:10394000FF3273482E774FF0FF3305F09AFB6B6917
:1039500001936B68CDE9023601A9687A00F0E6FCB4
:103960006B4805F090FBDBE72B680121687A9847EC
:10397000D6E7AB7A6BB9EB7F5BB965484FF0FF32A6
:103980004FF0FF3305F07DFB00F0CEFF604805F0FF
:103990007AFB2B680221E9E73A7A042AC0D8DFE8EB
:1039A00002F059032367730000F02AFC0546002843
:1039B000B6D100F065FBBFF35B8F5649012351E898
:1039C000002F002A03D141E800300028F7D1BFF3CF
:1039D0005B8FA5D141F8085C41F8105CE069636138
:1039E000143905F0BCF89BE7002565F07F00C0B2F4
:1039F000FFF738FD037A13B1407A01F0F9F8013589
:103A0000082DF2D194F854311BB194F8550101F00E
:103A1000EFF80025E8B2FFF725FD037A13B1407AED
:103A200001F0E6F80135082DF4D194F874321BB199
:103A300094F8750201F0DCF8002000F0C5FB0123CA
:103A400084F825302368002B3FF46AAF0021022060
:103A5000984765E7002584F8255001F02FF8FFF717
:103A60007FFD2368002B3FF45BAF29460420EFE77E
:103A7000002B3FF455AF00F0CDFB2368002B3FF443
:103A80004FAF00210520E3E72268002A3FF448AF4A
:103A9000002B3FF445AF00210620904740E708F196
:103AA00010054FF0FF334FF0FF32284605F0E9FADA
:103AB000FFF776FD284605F0E6FA58F8283C002B7B
:103AC0003FF42EAF00210120C2E794F874327BB19D
:103AD000012584F8895284F88852FFF7A3FD38B194
:103AE0000D4A057405738260FFF7F4FCFFF7EAFCEA
:103AF00058F8283C002B3FF413AF00210A20A7E719
:103B0000E00D0020C801002000700240E40D0020FC
:103B1000180E0020000E00204C10002005F018FEAA
:103B200000F0CCFF00F0A2FAFFF76EFDFFF738FDC2
:103B300005F007FE014800F0A3FBF1E64537000061
:103B400038B5164D95F824402CBB05F1380005F02A
:103B5000B5FE204601F09EF922460121E8612720AA
:103B6000FFF7ECF905F0EDFDFFF71AFD044610B97B
:103B7000012385F824300A4B1B680BB1FFF7A2FC28
:103B80004FF08043D3F83834DB0702D50020FFF72D
:103B90006BFD204638BD0024FBE700BFE00D002090
:103BA00058020020074B93F824203AB193F82530AF
:103BB000002B14BF00206FF0120070476FF012004E
:103BC000704700BFE00D002038B5104B93F824304B
:103BD0000446C3B105782846FFF744FC10B96FF0DE
:103BE000150038BD4572237983726388436020785D
:103BF000618810F0080F02D14B1E0B42EFD105F087
:103C000089FA0020EDE76FF01200EAE7E00D0020EE
:103C100038B5124B93F824200546CAB193F82530E5
:103C2000B3B1FFF71FFC0446A8B1837A012B12D071
:103C300007D9023B012B07D96369A3610020E0602B
:103C400038BD00F077FEF7E7284600F019FEF3E7ED
:103C50006FF01200F4E76FF01500F1E7E00D0020BF
:103C600038B50E4B93F82420054682B193F82530E1
:103C70006BB1FFF7F7FB68B115F008040AD12846CD
:103C800000F020FE284600F0EBFF204638BD6FF024
:103C90001200FBE76FF01500F8E700BFE00D002011
:103CA00038B50C4B93F8242005460C4662B193F8C6
:103CB00025304BB1FFF7D6FB48B144B1284600F0A0
:103CC000E7FD2070002038BD6FF01200FBE76FF0B9
:103CD0001500F8E7E00D002070B5134E96F824307B
:103CE0000446C3B1FFF7BEFB0546B8B1230705D4B0
:103CF000204600F0E7FD204600F0B2FF2B7A83B9A2
:103D000001232B7296F825300BB9002070BD204698
:103D100000F06EFFF9E76FF01200F7E76FF01500A3
:103D2000F4E76FF07700F1E7E00D00202DE9F043B4
:103D3000DFF8E4801E4698F8243085B007468946AF
:103D40001546002B61D098F82530002B5DD0030676
:103D50005ED5FFF787FB0446002859D0037A002B75
:103D600056D04FF0FF334FF0FF3208F1380005F026
:103D700088F9A37F4BB108F1380005F084F96FF0A2
:103D80000A04204605B0BDE8F083A37AC5B13BB371
:103D90000123A3774FF0000801A93846CDE901952A
:103DA000CDF80C8000F0C2FA1C4B984229D084F860
:103DB0001E801EBB6FF00404194805F064F9E0E7AB
:103DC000E27F02B1E577002BE2D100F0B9FD874236
:103DD000DED000F0A9FD124805F055F90024D0E727
:103DE000B8F80A30AB42F0D96268B5FBF2F302FBD7
:103DF0001353002BE9D10123E377E6E7C6F80080EF
:103E0000D8E706B135600024D6E76FF01204B8E7B2
:103E10006FF01504B5E700BFE00D00200000AD0B0A
:103E2000180E00202DE9F0411D46204B174693F84F
:103E300024200E46002A33D093F8253083B303069E
:103E400031D401B97FBBFFF70DFB044658B3037AA9
:103E50004BB34FF0FF3316484FF0FF3205F011F926
:103E6000E368BB42984628BFB84646B93FB905B19A
:103E70002B600F4805F007F90020BDE8F081A1692B
:103E80004246304605F077FFA3694344A361E368E7
:103E9000A3EB0803E360002DEBD0C5F80080E8E752
:103EA0006FF01200E9E76FF01500E6E7E00D002083
:103EB000180E002070B51E4D95F82420034682B3DD
:103EC00095F825206AB31B062ED4FFF7CBFA0446DB
:103ED00050B3037A43B34FF0FF334FF0FF3205F195
:103EE000380005F0CEF8E368B3B901266369267798
:103EF000A361637F83B1FFF795FB30B905F138000B
:103F000005F0C1F86FF00B0070BD06748460067395
:103F1000FFF7E0FAFFF7D6FA064805F0B4F80020FC
:103F2000F2E76FF01200EFE76FF01500ECE700BF6B
:103F3000E00D0020180E002010B5084B93F8243037
:103F40000C462BB1FFF78EFA28B10460002010BD9B
:103F50006FF01200FBE76FF01500F8E7E00D0020AE
:103F6000014B1860704700BFE00D002008B5074BFB
:103F700093F8243023B1FFF775FA20B1406808BDEB
:103F80006FF01200FBE76FF01500F8E7E00D00207E
:103F90004FF08053D3F83021082A06D1D3F83431BA
:103FA000052B04D8034AD05C7047002070470120DD
:103FB000704700BFBBA40000064B10F0800FA3F1B8
:103FC000D80208BF134600F00F00182202FB003091
:103FD000704700BF88170020EFF31180202383F380
:103FE0001288BFF36F8F0A4BD3F8001C032261B90C
:103FF00049F27531C3F8001CC3F8142DC3F8001C36
:1040000080F31188BFF36F8F7047C3F8142DF7E763
:1040100000E00640EFF31180202383F31288BFF302
:104020006F8F0A4BD3F8001C61B949F27532C3F89F
:10403000002CC3F8141DC3F8002C80F31188BFF3C3
:104040006F8F70470022C3F8142DF6E700E006409A
:104050004FF08053D3F83031082B02BF024B0022BF
:10406000C3F81C2C704700BF00700240024A0023B6
:104070001360024A1370704768180020C11B0020AB
:1040800008B54A4B4FF40062C3F80024FFF780FFE5
:1040900008B1FFF7A1FF4FF08053D3F83031082B60
:1040A00018D1EFF31180202383F31288BFF36F8FB1
:1040B0003F4BD3F8001CC02200296ED149F2753164
:1040C000C3F8001CC3F8142CC3F8001C80F311883B
:1040D000BFF36F8F354B0122C3F80025D3F80024BE
:1040E0001205FBD54FF40062C3F800244FF0805353
:1040F000D3F83031082B17D1EFF31180202383F34D
:104100001288BFF36F8F2A4BD3F8001C002947D1C8
:1041100049F27532C3F8002CC3F8141CC3F8002C04
:1041200080F31188BFF36F8FFFF732FF30B1FFF7D5
:1041300071FFFFF72DFF08B1FFF74EFF4FF08053DF
:10414000D3F83031082B194B0AD140F2E372C3F88F
:1041500000284022C3F80428BFF36F8FBFF34F8FAE
:104160008022C3F81C250122C3F83025114B40F2F0
:10417000FF121A60104B00211960104B1970FFF7E5
:1041800067FF0F4B19700F4B02221A70FFF700FFE9
:1041900050B1BDE80840FFF73DBFC3F8142C95E7C8
:1041A0000022C3F8142CBBE708BD00BF007002401A
:1041B00000E006406418002060180020BD1B0020AD
:1041C000BF1B0020C11B0020094B002210B51A7034
:1041D000084A094B094C002808BF1346C4F80033AD
:1041E0002720FEF77BFE0123C4F8043510BD00BF75
:1041F000C01B0020FDFFDF01FDFFFF01007002403A
:10420000034B1878012894BF00200120704700BF9D
:10421000C11B002010B54FF0FF324FF0FF3315489F
:1042200002F0E6FDEFF31181202383F31288BFF340
:104230006F8F114B1B7803F0FF0483B10F4BD3F842
:10424000002412F400720AD10120C3F82C05D3F81F
:104250002C05D3F80004800502D5C3F82C250024D2
:1042600081F31188BFF36F8F024802F08DFD204665
:1042700010BD00BF48020020C01B0020007002409B
:10428000F8B51C4B1C7894BB1B4A106001221A70B5
:1042900040F2FF17264664F07F0514F0080FEDB2D8
:1042A00014BF39464021284604F034FF2846FFF762
:1042B00083FE0134092C867506730661EBD1002458
:1042C00040F2FF17254614F0080FE6B214BF394636
:1042D0004021304604F01EFF3046FFF76DFE0134EA
:1042E000092C857505730561EDD10448F8BD0448B6
:1042F000FCE700BFC11B0020681800200000AD0BC8
:104300000500AD0B084B10F0800F00F00F0114BF3B
:10431000D3F81025D3F8142501238B40134214BF82
:1043200001200020704700BF007002402DE9F843D3
:104330000246EFF31187202383F31288BFF36F8FB8
:10434000030703D1184B1B78834229D1174B184E12
:104350001C683568104604F0D5FEE443A4B24FF063
:1043600001092C4309FA00F814EA08041AD110468E
:10437000FFF722FE80F80C90034607C91C6183E812
:1043800007009C750B4B0C4845EA080580223560F8
:10439000C3F8042187F31188BFF36F8FBDE8F8835A
:1043A0000648F7E70648F5E7BF1B00206418002021
:1043B0006018002000E100E00000AD0B0A00AD0B2A
:1043C0000B00AD0B10F0080F074B06D0D3F8C0045C
:1043D00010F4803F18BF0020704700F00F0000F578
:1043E000947053F820007047007002402DE9F74F99
:1043F000AB4BAC4ED3F85421DAB10022C3F85421B0
:10440000D3F80413890214D58DF80420D3F820259D
:10441000ADF80620D3F8C034002B336814BF4FF03A
:1044200001224FF48072134333609F4B01A81B6835
:1044300098479B4BD3F8604134B10022C3F8602108
:10444000D3F86C44C3F86C44D3F828214AB1002255
:10445000C3F82821954B187804F054FE01238340BB
:104460001C43DFF84C82934F98F8005098F9009065
:1044700015F0080143D1B9F1000F05F00F032EDA52
:104480008D4A52F8230020B342F8231014225343DC
:1044900003F1804303F51C33D3F80836874A1178BB
:1044A00003F001034B401370FFF7D2FD844802F084
:1044B0006BFC2846FFF780FD837D032B37D1284610
:1044C00004F020FE012303FA00F03B6823EA000316
:1044D0003B60DFF8D4A101254FF006095DE0794A81
:1044E00052F823000028F4D042F82310142253433A
:1044F00003F1804303F51C33D3F80837CEE7B9F155
:10450000000F674B09DBD3F85021002AE1D00022CD
:10451000C3F85021D3F8A837C0E7D3F82C21002ADC
:10452000D7D00022C3F82C21D3F8A836B6E7037BF6
:10453000DBB9284604F0E6FD012303FA00F03B68EE
:10454000B9F1000F23EA00033B6001DA882DC0D1E6
:1045500006238DF8043000238DF80730524B8DF878
:1045600006501B6801A89847B3E7002DB1D14C4B0A
:104570000122DA64ADE794FAA4F03268B0FA80F070
:1045800005FA00F31A430F28326024EA03043A685C
:1045900040F39C80134200F0A980002CEBD1404BEB
:1045A000D3F800215AB1C3F80041474B1C703F4B70
:1045B0001C70012301933C4B01A81B689847384BA2
:1045C000D3F85821002A2ED00022C3F85821D3F85E
:1045D0000044C3F80044E30508D53B4B01221A70A0
:1045E00002230193304B01A81B689847A50508D505
:1045F000354B00221A70032301932B4B01A81B6833
:10460000984760050FD5304B1A7862B100221A70B6
:10461000234B0122C3F808259A6504230193224BFA
:1046200001A81B6898471E4BD3F85C3103B3244B99
:104630009B681BB998F80030590619D0184B002216
:10464000C3F85C21D3F88034184A23F07F03137039
:104650003B6823F001133B60336823F4803343F05D
:1046600001033360052301930F4B01A81B68984792
:104670003A6833681A4200F0EB80114800220023A8
:1046800002F0B6FB002840F0E380054BD3F82C3550
:10469000002B7BD00A4803B0BDE8F04F02F074BB9A
:1046A000007002406418002068180020BF1B002022
:1046B000BE1B00206018002008710240BD1B0020B6
:1046C0004802002030710240C01B002013407FF4DC
:1046D00064AF60F07F018DF804908DF806108DF8BE
:1046E0000730DAF8003001A8984756E7A0F110012A
:1046F0008DF804908DF806108DF80750F1E749F019
:1047000080052846FFF758FC4368B0F814A00168FC
:104710009A4528BF9A4601F06043B3F1005F044612
:1047200004D05448524605F026FB5249226863687B
:1047300052442260A268A3EB0A03D20768B2636006
:1047400053D5BAF1000F52D1002323734FE0114625
:104750004FF0000A604545D1003B18BF0123002AF5
:1047600042D0504540D9012303FA09F32BEA030351
:104770003B6006238DF804303F4B8DF80650022233
:104780001B68A2758DF8072001A89847D7F800B0DC
:1047900033681BEA03093FF47DAF19F0012314BF0E
:1047A00093FAA3F999FAA9F9B9FA89F9B9F10F0FAE
:1047B000A5D9A9F11005EDB22846FFF7FDFB044687
:1047C0002846FFF7FFFD6368B4F814C022689842DA
:1047D000BDD81B1A00EB020E11466360C4F800E05E
:1047E0008246B7E70023BAE768B2002BACD04FF09F
:1047F0008053D3F83031082B02BF204B8222C3F8FC
:104800001C2C336888F80050012202FA09F923EAC7
:1048100009033360236915F0080F53442361174BD4
:1048200019D1002805F00F054FF0140000FB0530EA
:10483000A9BF0A3503EB8503C0F80017C0F804A729
:10484000AFBF43F82520C0F80016C0F804A65A6090
:1048500003B0BDE8F08F0028B5BFC3F8A016C3F8B9
:10486000A017C3F8A4A6C3F8A4A7B4BF5A629A6459
:10487000EEE700BF701600206818002000700240AC
:10488000024B40F48070C3F8180570470070024076
:10489000030713D400F00F0310F0800F084A0BBF7A
:1048A00003F5887303F5847302EB830252F8230047
:1048B00008BF5068003818BF0120704700207047BB
:1048C00000700240034BC3F80C0540F48070C3F83D
:1048D0000C057047007002400023036043600E4BDC
:1048E000D3F880240270D3F884244270D3F888244B
:1048F000D3F88C1442EA01224280D3F89024D3F8F2
:10490000941442EA01228280D3F89824D3F89C348C
:1049100042EA0323C380704700700240014B01222A
:10492000DA64704700700240014B01221A6570473B
:1049300000700240014B01225A657047007002402E
:10494000014B1878704700BFBF1B002010B502460E
:10495000EFF31184202383F31288BFF36F8F04F0E9
:10496000D1FB0B49012303FA00F00B6823EA000393
:104970000B6012F0080101BF02F00F02054B02F5B7
:10498000947243F8221084F31188BFF36F8F10BD27
:104990006418002000700240F7B50146EFF311855E
:1049A000202383F31288BFF36F8FFFF705FB0646C2
:1049B000084604F0A7FB012211F0800F02FA00F272
:1049C0002D4818D1036832EA03040AD00846FFF7DD
:1049D000BDFF0323B37585F31188BFF36F8F03B059
:1049E000F0BD2649347323EA020303600B6823EA0F
:1049F00002030B60EDE70B0715D48029204B2FD065
:104A000001F00F0404F2DA346400C3F80048D3F86C
:104A10000448D3F80478E4B244F002043C43C3F8F9
:104A20000448D3F80438154F04683B6864EA030C63
:104A30001CEA020FCFD013433B60002333730323E0
:104A4000B3758DF807300F4B8DF8061024EA020479
:104A5000062204601B688DF8042001A89847BAE775
:104A600040F2B474C3F80048D3F80448D3F804788B
:104A7000E4B244F00404D1E7601800206418002078
:104A8000007002406818002038B50446094D4FF008
:104A9000FF324FF0FF33284602F0AAF92046FFF715
:104AA0007BFF284602F070F9034B8022C3F80421F3
:104AB00038BD00BF4802002000E100E0F8B54FF02B
:104AC000FF324FF0FF332B4802F092F92A4B80223D
:104AD000C3F884212720FEF723FA98B1274E284BEC
:104AE00034681B68240C24041C43012764BB254D37
:104AF00040F2FF1333602720C5F80445FEF7FCF9A8
:104B0000C5F80043204A13788BB11E4B0021C3F82F
:104B100008110121C3F80026C3F804165960D3F820
:104B200008110029FBD00021C3F808111170154BA2
:104B30000022C3F80025FFF78BFA0E4802F024F993
:104B4000124B01221A70F8BD94FAA4F5B5FA85F556
:104B50000F2D2846C6BFA5F11000C0B240F080005E
:104B6000030701D4FFF718FF07FA05F524EA050447
:104B7000BCE700BF4802002000E100E0641800200C
:104B80006018002000700240BD1B0020C11B0020E7
:104B900010B504464FF0FF324FF0FF33114802F0DA
:104BA00027F92046FFF7F8FE04F00F020123934097
:104BB0000D4A14F0800F14BFD2F81015D2F8141556
:104BC0006FEA030315BF0B400B40C2F81035C2F863
:104BD0001435044802F0D8F8044B8022C3F80421AD
:104BE00010BD00BF480200200070024000E100E05C
:104BF00070B50446FFF786FB68B904F00F02012583
:104C000014F0800F144B05FA02F205D0D3F81015FA
:104C10000A43C3F8102570BDD3F814150A43C3F82E
:104C20001425631E062BF6D8EFF31186202383F399
:104C30001288BFF36F8F2046FFF788FE204604F0EE
:104C400061FA064A1368854023EA0503136086F378
:104C50001188BFF36F8FDEE70070024060180020FC
:104C6000030610B5044605D4FFF712FE10B1204626
:104C7000FFF76CFE014BC3F8184510BD00700240F1
:104C8000084B70B5C31A0D4607499B10044659439B
:104C90000648402204F062FA2B4601462046BDE851
:104CA0007040184780180020B76DDBB60C9F0000DD
:104CB00073B50C4C0C4A4023041B00930D460B4665
:104CC0000A49A41061430646094804F073FA011E1C
:104CD00005DA30462B4602B0BDE87040184702B0F6
:104CE00070BD00BF801800201F920000B76DDBB6BA
:104CF0000C9F000010B5EFF31184202383F312887A
:104D0000BFF36F8F074A136823F00201DB071160BE
:104D100002D4012004F087FC84F31188BFF36F8F65
:104D200010BD00BFD0180020002270B5012104463C
:104D30001046FEF703F90F4801F074F80E4B984245
:104D400015D101F07FF826690C49304603F0F4FED6
:104D500000280BDB012535642469084904F11C0097
:104D600003F0EAFE002801DBE564002070BD6FF06F
:104D70000400FBE7794E00000000AD0B74A20000B8
:104D80001FB500220123CDE90223094ACDF800D046
:104D90006B46CDF804D004F03BFA002805DB4FF455
:104DA00080420023684602F023F805B05DF804FB5A
:104DB0003D92000030B4104B0C2202FB0033014640
:104DC0000020D3E90E529863EFF31180202484F37E
:104DD0001288BFF36F8F1C6C04F0C00444F002040F
:104DE0001C6480F31188BFF36F8F1DB12B460348FD
:104DF00030BC184730BC7047801800200C9F000062
:104E000010B4EFF31182202383F31288BFF36F8F66
:104E10001748016841F002040460C80707D482F310
:104E20001188BFF36F8F012010BC01F023B84FF041
:104E30008041D1F80C04D1F80C14C907EFD5EFF379
:104E4000118083F31288BFF36F8F0A490B6C03F054
:104E5000C00343F002030B6480F31188BFF36F8F2C
:104E600082F31188BFF36F8F002010BCFFF7A2BF41
:104E7000D01800208018002010B1012804D07047FD
:104E8000034B1B6C5B0701D1FFF794BF704700BF5A
:104E900080180020024AC3B21C2003FB0020704788
:104EA000801800202DE9F0413849BFF35B8F074699
:104EB000012251E8003F41E800200028F9D1BFF36A
:104EC0005B8F33B9324933484B60CB608A6003F063
:104ED00046FE7B1E012B2BD8012F07D14FF08043BC
:104EE000D3F81C3403F00303012B21D004F0ECFDB4
:104EF0000546F8B9284B1B78E3B14FF080430222F6
:104F0000C3F808230646DFF894804FF08044D4F8B5
:104F10001824D4F81834D20315D503F00303012B59
:104F200001D0012F0FD155B386F31188BFF36F8FD6
:104F3000BDE8F081EFF31186202383F31288BFF3DD
:104F40006F8F0125DFE7ADB1304604F063F8D4F888
:104F50001835002BDBD1D4F80421002AD7D0C4F8AF
:104F60000431D4F804310123C4F81835C8F880316D
:104F7000A360CCE70021212004F046FEE7E74FF0D4
:104F800080430222C3F80423D2E700BF7C1800202C
:104F90006C1800209C180020E61B002000E100E0B7
:104FA00008B5074804F0E7FB38B10648FEF7D2F928
:104FB0000448FCF71DFA002008BD6FF01200FBE763
:104FC0006C9F0000C94F00000A2838B5074D044601
:104FD00004D1AB680D215B6828469847AB6803484D
:104FE0005B68E1B29847204638BD00BF6C9F000067
:104FF000F0B516464268107B01F01F0444EA4014E5
:10500000106987B0002872D0B6F5001F02F11005B4
:1050100006D12146284604F086FB002007B0F0BDEB
:1050200001A80027B6F5800F0197476039D1B3F189
:10503000007F14BF052304238DF804300023CDE93D
:1050400004030393936823FA01F111F001010DF1B8
:1050500003073ED1B6F1A07F3BD104F01F036209E4
:1050600003F5E07328D0012A47D1254A52F82330AE
:10507000DB072ED43A462146284601F0E5F9214BBC
:1050800098421CD0029703AA2146284601F09CF8BA
:105090001D4B98422ED101222146284601F02CFAC0
:1050A000BBE7B3F1C06F05D0B3F1007F14BF01239C
:1050B0000223C1E70323BFE74FF0A042D6E73946FA
:1050C000284601F011FA104B9842DBD06FF00B002C
:1050D000A4E73A462146284601F0B6F90A4B984221
:1050E000D1D19DF80310284601F0F6F9CBE76FF017
:1050F000850093E76FF0150090E751F82330FFDE4D
:10510000000300500400AD0B0000AD0B420970B568
:10511000034602D0012A17D070BD0D4E3269516886
:105120000029F9D003F01F0301250C689D400029D8
:10513000F2D08A682A4002D04B68304698472CB19A
:10514000236821461C46F2E7024EE7E72346F8E7CC
:105150004C9F00002C9F000038B545682B69B3B107
:105160001035284601F0AEF9044680B901462846BC
:1051700001F084F9084B98420BD108492246284691
:1051800001F05CF9224605210620FDF7D7FE00203C
:1051900038BD6FF00400FBE70000AD0B0D510000BF
:1051A0002DE9F043466840F20635D006337B87B0E0
:1051B00002EA050554BFC2F34010032001F01F07A7
:1051C000B5F5837F144647EA43178DF8030044D0B2
:1051D0000FD8062D18D007D8B5B1022D3FD06FF0EB
:1051E000150007B0BDE8F083B5F5807FF7D1012544
:1051F0000AE040F20222954233D0B5F5407F32D02A
:10520000B5F5007FEBD1022522032ED5726801236C
:105210008B40C2F80835326992BB07F01F037F0943
:105220002BD0012F79D13F4A02EB830284F48033E3
:10523000D2F80017C3F30043C4F3404444EA4304E4
:1052400021F4E16144EA800421F0070144EA0523E6
:105250000B43C2F800370020C3E70725D4E7042535
:10526000D2E70525D0E70325CEE7630341BF01233D
:1052700072688B40C2F80C35CDE74FF0A042D3E7FF
:1052800010360DF102023946304601F0DDF814F413
:10529000403F80460CD13946304604F042FA224B5A
:1052A0009845D8D19DF80210304601F015F9D2E7A3
:1052B00001AB4FF0000903AA39463046CDE9043965
:1052C000CDE90199CDF80C9000F07EFF164B984285
:1052D00085D114F4003315D09DF803308DF80E30CD
:1052E00084F48034C4F300444B4603AA3946304664
:1052F0008DF80C508DF80D4001F022F80A4B9842C1
:10530000CDD06CE7CDE9043303AA0DF10303394690
:105310003046039300F058FFF0E703F5E07352F8CE
:105320002330FFDE000300500000AD0B036803F0E4
:105330001F025B09026004D0012B034818BF002044
:1053400070474FF0A0407047000300502DE9F04F28
:10535000DFF86091DFF860A185B01546834600EB69
:10536000810140F2FF18594503D1002005B0BDE886
:10537000F08FDBF800305804C3F3C322C3F30804F2
:1053800000F191801B0E19F80270444508BF4FF0E0
:10539000FF34192B00F28A80DFE803F00D141A1D88
:1053A00020261D8888888836638888888888888829
:1053B0008888667C7F82C5F80C45621C5ED10BF143
:1053C000040BD0E7C5F81445631CF8D000265FE055
:1053D000C5F80845F1E7C5F81045F5E7661CC5F8BE
:1053E0000845ECD0002604E0601CC5F80C45E6D06A
:1053F000012603A80394FFF799FF039B012202FAF9
:1054000003F3C0F80C3508E0C5F80845002FDBD1E0
:10541000631CD4D0002632460627DBF80030019307
:1054200003F40040002818BF002203A8009218BF10
:1054300001260394FFF77AFF039C019B009A00EB7F
:105440008400C3F3412CD0F800473B0243EA8C03AD
:10545000134304EA0A04234343EA4603C0F800372F
:10546000ADE7C5F80C45D1E7C5F86045621CDBF82F
:105470000030A4D0C3F30043002BB9D003A8039499
:10548000FFF754FF039B012606FA03F3C0F8083523
:105490003246C2E7C5F86445E8E7C5F86845E5E780
:1054A000C5F86C45E2E76FF015005FE76FF0850027
:1054B0005CE700BFECA40000F0F8FCFF2DE9F04130
:1054C000044647680D4604F0FFFA4FF0200888B9FB
:1054D000264B1B7873B16426606803F0D2FFF0B9E5
:1054E000012004F092F8013EF6D10021212004F0C1
:1054F0008BFBF0E7EFF31186314688F31288BFF398
:105500006F8F606803F0BDFFA8B986F31188BFF301
:105510006F8FEFE786F31188BFF36F8FE5E7EFF347
:105520001186314688F31288BFF36F8F606803F0ED
:10553000A8FF0028EED0BB691D706368BA691B68BC
:105540000020C3F844250122C3F84825C3F82001F0
:10555000D3F82041C3F85801D3F858019A6081F379
:105560001188BFF36F8FBDE8F08100BFE61B0020FC
:10557000F8B50022054601210220FDF7DFFC0220DC
:10558000FDF7ACFC6C680121E06803F0CEFF6B68AE
:105590001A682369C2F82435617D237D0B43A17D00
:1055A0000B43C2F86C356E68D6E9004313F0010373
:1055B00042D02F6907F10C0004F033F82D4B9842CC
:1055C00054D1387B04F10C0204F5907104F01FF8FB
:1055D000387B012707FA00F000F0BCFB0823C4F871
:1055E0000035B369C4F844350023C4F84835A760D2
:1055F000D4F85831002BFBD00026C4F800656B6846
:105600003146D86803F091FF6D6831462C68E86830
:1056100003F08BFF0823C4F800352A7A52B9EB69EE
:10562000C4F834350123C4F83835C4F81021D4F84F
:10563000102123600020F8BD0822C4F80025B269BB
:10564000C4F84425C4F848350123A360D4F82031B8
:10565000002BFBD00023C4F82031D4F820310123E3
:10566000E3604FF48073C4F80433C1E76FF00400C3
:10567000E1E700BF0000AD0B70B5012383400E4A87
:10568000BFF35B8FDC4352E8001F01EA040542E8E8
:105690000056002EF7D1BFF35B8F4FF4803282406B
:1056A0000648C0F80823BFF35F8FBFF36F8F0B422C
:1056B00014BF0120002070BDF01800200010014030
:1056C00070B40E49D1E90034D01AC31844F1000473
:1056D00022F07F46C1E90034A6F50013B3F5400F70
:1056E00009D2074B1B681A0A1B069C19054B42F18D
:1056F0000005C3E9004570BC02F04CBA80040020EC
:10570000F41800208804002011B3BFF35B8F01233D
:10571000104A834052E800CF4CEA030C42E800C133
:105720000029F7D1BFF35B8F0B4A4FF480338340DE
:10573000C2F80433094BBFF35B8F1B68BFF35B8F69
:10574000C340DB0742BF064B4FF40032C3F80021D1
:10575000704700BFF018002000100140EC18002036
:1057600000E100E00D4B1868010A0006BFF35F8FEF
:105770000B4BD3F80435181841F10001B3F5801F25
:105780000AD2084BD3E90023904271EB030303D202
:1057900010F1807041F10001704700BFF418002043
:1057A00000100140880400202DE9F04F85B0164616
:1057B0001F469DF840A00446FFF75EFF0190FFF7EB
:1057C000D1FFB04271EB070354D23E4B301A67EB66
:1057D0000101984271F100014FD23B4B03EB0413DE
:1057E000D3E902239F4208BF96425ED037494FF467
:1057F000803804F1500508FA04F8AD00C1F8488378
:105800002046ADB203F0E9FE26F07F4B05F180455E
:1058100004F5A87305F58835DC464FF003090293BB
:10582000029A2CF07F4341F82230C1F84483D1F82A
:105830000435274A6FF00200C01A604420F07F4010
:10584000904232D9286868B1D1F804350393A3EBAC
:105850000B0020F07F40B0F5000F26D9204603F062
:10586000BCFE039BBAF1000F07D109EB030C09F151
:105870000109D5E7BAF1000F09D06FF015052046F0
:105880000199FFF741FF284605B0BDE8F08F0123DD
:10589000104ABFF35B8FA34052E8000F184342E861
:1058A00000010029F8D1BFF35B8F07490E9823014F
:1058B00001EB0412C8500F9B5360C2E90267002538
:1058C000DDE700BF010080007004002000100140EF
:1058D000FDFF7F00EC1800207FB51C4C1C4BC4F86A
:1058E0000833C4F848331B4B00254FF0FF304FF00E
:1058F000FF31C4F80855C3E902014FF48033C4F8FE
:105900000433154B02264FF400320121C4F804631E
:105910001120C3F880212A46FDF710FB1120FDF766
:10592000DDFA0E4A0123A360236013600C4B0D4A7D
:105930000093CDE9015500232846FFF735FF304697
:10594000FFF7B0FA284604B070BD00BF0010014058
:1059500003000F007004002000E100E0F0180020B8
:10596000C1560000FFFF7F002DE9F7432F4CD4F80C
:10597000043399070BD5D4F8043143B12C4A0023E2
:10598000C4F80431D4F80431136801331360D4F837
:105990000433DA0329D5BFF35B8F264B53E8002F7E
:1059A00022F0010143E800100028F7D1BFF35B8F1C
:1059B000D30702D4D4F84031BBB10025C4F840511C
:1059C000D4F84031FFF7CEFEEFF31182202383F3AA
:1059D0001288BFF36F8F184BD3E90267B042B94109
:1059E00006D282F31188BFF36F8F03B0BDE8F08356
:1059F0004FF0FF384FF0FF39C3E90289D3E90010B7
:105A00001D604FF48033C4F84833C4F84051D4F8D3
:105A1000403182F31188BFF36F8F0029E5D00090E9
:105A200032463B4628468847DFE700BF001001406A
:105A3000F4180020EC1800207004002030B5431C3E
:105A4000124C85B005D08442A8BF0446012CB8BFD3
:105A50000124FFF787FE0E4B0C4DD3E90013401ACB
:105A6000B0F5000F10D22218AA4228BF2A465218B9
:105A70004FF0000007490091CDE9010043F1000318
:105A8000FFF792FE05B030BD2A46F0E7FFFF7F002A
:105A900080040020C156000008B5FFF763FE024BEA
:105AA0001B68C01A08BD00BF80040020BFF34F8FE1
:105AB0000549064BCA6802F4E0621343CB60BFF3AA
:105AC0004F8F00BFFDE700BF00ED00E00400FA05C6
:105AD0004FF08053D3F83021082A06D1D3F834315F
:105AE000052B02D8024AD05C70470020704700BFE7
:105AF00008A50000024AD2F80034002BFBD0704702
:105B000000E0014010B54FF08053D3F83021082A4F
:105B10004ED14FF080420021C2F80C11C2F8101192
:105B2000C2F8381502F54042D3F80414C2F8201523
:105B3000D3F80814C2F82415D3F80C14C2F82815A9
:105B4000D3F81014C2F82C15D3F81414C2F8301579
:105B5000D3F81814C2F83415D3F81C14C2F8401541
:105B6000D3F82014C2F84415D3F82414C2F8481509
:105B7000D3F82814C2F84C15D3F82C14C2F85015D9
:105B8000D3F83014C2F85415D3F83414C2F86015A1
:105B9000D3F83814C2F86415D3F83C14C2F8681569
:105BA000D3F84014C2F86C15D3F84434C2F87035F9
:105BB000FFF78EFF18B13F4B3F4AC3F88C26FFF723
:105BC00087FF18B13D4BFB22C3F81825FFF780FF74
:105BD00070B14FF080414FF08053D1F8E42ED3F8EC
:105BE000583222F00F0203F00F031343C1F8E43ED2
:105BF000FFF76EFF20B1324B4FF40072C3F840261E
:105C00004FF08053D3F83031082B1AD14FF0804336
:105C1000D3F80024D20744BF6FF00102C3F8002478
:105C20004FF08053D3F83431052B02D8254AD35C8A
:105C30003BB14FF01023D3F808224FF08043C3F854
:105C400058254FF01021D1F80C32DB0714D51E482F
:105C50000123C0F80435FFF74DFFD1F80C3223F0D3
:105C60000103C1F80C32FFF745FF0023C0F80435EB
:105C7000FFF740FFFFF71AFFD1F80032002B03DBDC
:105C8000D1F80432002B14DA0F4901234FF0102011
:105C9000C1F804351224FFF72DFFC0F80042FFF7CA
:105CA00029FFC0F80442FFF725FF0023C1F804359F
:105CB000DEE710BD005000404881030000F00040C6
:105CC0000090024002A5000000E0014030B50468E9
:105CD000CCB1BFF35B8FB4FA84F3C3F11F03DBB223
:105CE00001229A4024EA020250E8005FA54204D152
:105CF00040E8002CBCF1000FF6D1BFF35B8FE6D17A
:105D000002480B7030BD0248FCE700BF0000AD0B3D
:105D10000200AD0B10B50368CB40DB0714D40123A0
:105D20008B400268BFF35B8F43EA020150E8004FEB
:105D3000944204D140E8001CBCF1000FF6D1BFF33F
:105D40005B8FEED1014810BD0148FCE70000AD0BB0
:105D50000400AD0B014BC3F80405704700F001408F
:105D6000F7B50546F8B101281BD104224FF4807322
:105D700001464FF0804003440244C0F80813002657
:105D8000012111601E608D421B688DF8071008BF4D
:105D90000DF1070642F210744FF0804745B1012D16
:105DA00029D003B0F0BD0C224FF482730221E0E74A
:105DB000D7F8183403F4803366B9002BF1D00120F2
:105DC00003F023FC013CF3D1EBE703F01EFC013CA4
:105DD000E4D1E6E7D7F8182402F003023260002B82
:105DE000DFD09DF807000128EFD0012DD9D10C4B51
:105DF00000225A71D5E7D7F80C3403F480333EB94A
:105E0000002BF4D0012003F000FC013CF3D1C8E7E3
:105E1000D7F80C2402F001023270002BE1D1E6E742
:105E2000F8180020044B1A7922B9012218609A80D0
:105E30000248704702487047F81800200000AD0B78
:105E40000C00AD0B08B5094B1B682BB10020FDF70A
:105E500067F808B9FDF742F84FF080430022C3F815
:105E60001825034B01221A7008BD00BFF818002046
:105E7000E41B002010B510B1012843D010BD4FF035
:105E80008043D3F81814D3F81824C80321D502F09E
:105E90000303012B04D013B10020FFF761FF00239F
:105EA0004FF080420220C2F8183508224FF4827366
:105EB00003F180430021196002F180421C68012433
:105EC0001460154A12680AB34FF08043C3F8040304
:105ED000D4E7D3F81424D107E1D5D3F81C249207D2
:105EE000DAD40D4A12681AB10222C3F80423C5E7B6
:105EF000D3F80421002AFBD00022C3F80421D3F8F0
:105F00000431BBE700224FF48073D1E71A68002AFE
:105F1000FCD019601B68B1E7F8180020F8B54FF005
:105F200080431C4ED3F804430125002704B9F8BD73
:105F3000B4FA84F0C0F11F00830003F580739BB2B4
:105F400003F1804305FA00F2196892B224EA0204D0
:105F50000029EBD01F601B684FF08043012AC3F873
:105F6000082305D0022A08D03368C0B29847DDE77D
:105F70007379002BDAD17271F6E7D3F81814D3F8DD
:105F800018148907F0D1C3F81855C3F804239D608D
:105F9000CCE700BFF8180020036803F01F025B097C
:105FA000026004D0012B034818BF002070474FF057
:105FB000A040704700030050034A430900F01F004F
:105FC000D35C1844C0B270470EA5000070B50546FA
:105FD000FFF7F2FF0C4C08300E4634F81030DA05AB
:105FE00008D5C3F3432304EBC302284654F83330E7
:105FF00052689847A3682BB1E26831462846BDE84D
:106000007040184770BD00BF0019002008B5FFF7A9
:10601000D3FF034B083033F81000400B08BD00BF1E
:106020000019002008B5FFF7C7FF034B083033F80D
:106030001000C0F3400008BD0019002008B5FFF7AC
:10604000BBFF034B083033F81000C0F3401008BD0D
:1060500000190020034611F0010010B5CCB20DD19B
:10606000A207C4F3400012D5094AD2F820055860AF
:10607000C2F82005003818BF012008E04FF0A04109
:10608000D1F820251A60C1F82025002AE8D010BDDB
:106090000003005010B5FFF78FFF124A083032F8A6
:1060A0001030D9051CD5C3F3432123F4F85322F84B
:1060B000103002F10E04002034F8023F13F4807F08
:1060C00003D0C3F3432399420AD001303028F3D1DF
:1060D000002342F831300448BDE81040FFF71ABEF3
:1060E00010BD00BF001900207819002001F1805177
:1060F000F0B501F5C2510446114A0020890001257E
:1061000006468A420BD10F4BD3F87C2132B10022D4
:10611000C3F87C21D3F87C3140F00040F0BD02F19F
:106120004043A3F5C2439B0805FA03F31C4204D085
:10613000176817B11660176818430432E1E700BF0B
:106140000061004000600040F7B506460846FFF7D2
:1061500033FF194F00F108050C4637F81530DB07FF
:1061600027D5304603F0B9FA2046FFF767FF40B164
:106170002046FFF74BFF316800F5A270002341F87D
:1061800020302046FFF786FF002301A827F81530AE
:106190000194FFF701FF019B00EB8300074BD0F850
:1061A0000027134043F00203C0F80037044803B04F
:1061B000F0BD0448FBE700BF00190020F0F8FCFF29
:1061C0000000AD0B0400AD0B2DE9FF4116468046E3
:1061D0000846FFF7F1FE0C463168054609B3204634
:1061E000FFF720FF18B12046FFF728FF10BB002360
:1061F000CDE900338DF80E308DF80F300DF10F0220
:106200000B4620460DF10E0103F00FFA484A05F146
:10621000080132F8113023F0020343F0010322F8A1
:10622000113073685BB320461F785968FFF7FAFE98
:1062300010B1C9B13F4825E03D4A05F1080C32F8DC
:106240001C3023F02003DB04DB0C22F81C3059B196
:10625000032FEFD87168D8F8000049680978A7B90A
:1062600001F5A27140F82170314A05F1080132F8B8
:10627000113023F01C0343EA870322F81130B3687E
:106280006BBB2D4804B0BDE8F08100EB810043EA10
:106290004133D0F810E52EF0030EC0F810E5D8F821
:1062A000000000EB810E43F02003DEF8100522F819
:1062B0001C3020F44F3020F44070CEF8100520023E
:1062C000DEF8108500F47C5040EA074040EA080000
:1062D000CEF8100502EB4100A0F87C40C4E7D3E9FA
:1062E00000672046FFF7D6FE002ECAD0104CD4E936
:1062F0000023964203D19F4201D1002209E00F48BA
:106300000DF10F01FFF7E2FC0B4B9842BAD19DF85B
:106310000F2044F8326004EBC20308355F6034F8A4
:10632000153043EA422343F4807324F81530A8E77C
:10633000001900200400AD0B0000AD0B78190020FF
:106340002DE9F0430C4685B08046204611461E4696
:10635000FFF732FE054629B32046FFF763FE18B962
:106360002046FFF76BFE18BB314F05F1080937F8DF
:10637000193013F01C0F02D04B78012B18D00123D9
:106380008DF80F300023CDE900134A1C8B1C2046EA
:106390000DF10F0103F049F937F8193043F0030309
:1063A00027F81930002E41D02046FFF73BFE18B9E0
:1063B000204805B0BDE8F08396F800C0D8F800305A
:1063C0001B4F0CF5A272002143F8221005F10802C0
:1063D00037F8121021F02001C904C90C27F8121057
:1063E00075781DB3D8F80000B67800EB8C002D044A
:1063F000D0F8103523F4991323F4F853C0F810356E
:10640000230203F47C5305F440353605D0F810E53B
:106410002B4306F4801641EA4C31334341F020010E
:1064200043EA0E0327F81210C0F810350248C0E7FF
:10643000001900200400AD0B0000AD0B014BC3E9B7
:10644000021270470019002010B508461446FFF7E5
:10645000F5FD50B10846FFF7AFFD054B083033F8A6
:10646000103004485B0B237010BD0348FCE700BFED
:10647000001900200000AD0B0400AD0B70B50E4CF0
:1064800094F88C500646A5B96022294604F1100004
:1064900003F07FFC3068C0F87C51D0F87C3140F3C9
:1064A0000730FCF71BFD0123044884F88C30A367F8
:1064B00070BD0348FCE700BF001900200000AD0BD1
:1064C0000C00AD0B034B93F88C00003818BF012073
:1064D000704700BF001900200079024B03EB8000D9
:1064E000FFF718BC480100200079024B03EB800045
:1064F000FFF7ECBB48010020F7B5054608461646F5
:10650000FFF79CFD0C462968F0B12046FFF78AFD95
:106510000746C8B92046FFF779FD04B2A40004F588
:1065200080728F508A5829682144D1F8102542F092
:106530000102C1F810252EB12968012202FA00F3E8
:10654000C1F8043303B0F0BDD1F80433002BA4BF6D
:106550004FF00043C1F804332046FFF72DFD0F4BE9
:10656000083033F81030C3F38203042B12D0052B0C
:1065700012D001A80194FFF70FFD019AD0F8103551
:10658000D34003F00103991C204603B0BDE8F0405E
:1065900003F094B80321F7E70221F5E70019002082
:1065A0002DE9F04F654BD3F80403C0B287B0082142
:1065B00040F00040FFF79AFD051E2BDA002303216F
:1065C00004A8CDE90433FFF745FDDFF874A10DF110
:1065D00010084FF000094FF0010B1AF8013B594920
:1065E000DA0803F007038A5C22FA03F3DA071CD403
:1065F00008F10408B9F1000F14D000214FF0004059
:10660000FFF774FD032104A8FFF724FD0028DCD167
:1066100025F00045494E4C4F0124002D78D107B09C
:10662000BDE8F08F4FF00109D7E7484B4B4400938A
:10663000D8F800100029DBD0009B91FAA1F11C785A
:10664000B1FA81F141EA44142046FFF7B5FC3E4B14
:106650000394083033F81070C80801F0070118F8E7
:1066600000200BFA01F122EA0102BB0808F8002021
:1066700003A80193FFF790FC039A019B02F5E072D7
:10668000C7F3820650F822205B073746C2F3014267
:1066900023D520463946D6B2FFF798FC03A80394C9
:1066A000FFF77AFC039B03F5E07350F82330C3F344
:1066B00001439E4207D10021204602F0FFFF3146F0
:1066C000204602F0FBFF03A80394FFF765FC039B41
:1066D0000BFA03F3C0F82035AAE7022A0CD10321F4
:1066E000204602F0EBFF06F00503012BEBD1394603
:1066F0002046FFF76BFCE6E702212046019202F0FC
:10670000DDFF032EF3D0019A032ADCD1022EEDE740
:1067100095FAA5F3B3FA83F304FA03F225EA020526
:1067200003F5A27207EB430356F82210B3F87C007E
:10673000C1F30141FFF74AFC6FE700BF0060004072
:106740001EA5000008A30000001900201EA50000DF
:1067500010B5184C237853BB0278C2F3400392075C
:1067600012D54FF08053D3F83021082A0BD1D3F83B
:106770003431052B07D8104AD35C23B14FF0804346
:106780000122C3F8382601234FF08042C2F8803539
:10679000037803F00103C2F878350020FCF7C0FB52
:1067A00008B9FCF79BFB01230448237010BD044883
:1067B000FCE700BFE51B002020A500000000AD0B9A
:1067C0000C00AD0B4FF080434FF46072C3F8082308
:1067D000014B00221A6070479019002008B5FFF79E
:1067E000F1FF03680BB1014A136008BD9019002046
:1067F00010B54FF08043D3F80443620707D54FF438
:10680000847002F092FF10B11E4B1B689847A306DC
:1068100008D54FF48A7002F088FF18B11A4B002097
:106820001B689847600608D54FF48C7002F07DFF16
:1068300018B1154B01201B689847210608D54FF465
:106840008E7002F072FF18B1104B00201B68984741
:10685000E20508D54FF4907002F067FF18B10B4BBA
:1068600001201B689847A3050AD54FF4927002F0E7
:106870005CFF28B1054BBDE810401B68022018479B
:1068800010BD00BF98190020941900209019002015
:1068900001460148FFF71ABA4C01002038B5EFF362
:1068A0001185202383F31288BFF36F8F064B9C68FA
:1068B00002F074FF85F31188BFF36F8F2046BDE8A7
:1068C0003840FCF7B3BA00BF9C19002038B50A4B1A
:1068D00053F82040013053F82050A54200D838BD6D
:1068E000606830B1037FDB0701D402F05AFF08343F
:1068F000F3E723689847FAE70CA3000070B52A4B2A
:106900002A4C2B4D012286B003201A70FFF7DEFFC0
:10691000FBF796FF0420FFF7D9FF2646AE4204F1AD
:10692000300410D300F00EFE204C224EAC4226D391
:1069300000F01CFE01F049FE1F4A137B23F0010307
:10694000137306B070BD54F80C3C059354F8103C1A
:10695000049354F8143C039354F8183C029354F8ED
:106960001C3C019354F8203C009354E90A2354E959
:106970000C0100F0CFFB54F8303C5E65CDE7D4E964
:106980000A23B3F1FF3F08BFB2F1FF3F05D052EA3F
:106990000301206803D100F0C3FE3034C6E731465E
:1069A000183001F065F8F8E7E61B00202CA1000084
:1069B0002CA10000C99B00001005002008B5034869
:1069C000034A0021121A02F003FF08BD3003002021
:1069D000E81B002070B5002386B00122CDE9042316
:1069E000134E144D01930F22CDE9023212491423A4
:1069F00003FB005506EBC01604464FF4C07000FBC5
:106A000004110E4B00954FF4A072304600F082FB4B
:106A1000737B0B4AEE6023F0040373734FF404633B
:106A200004FB033313442C746B6006B070BD00BFCD
:106A3000900400209C190020C02C00209798000092
:106A400080240020BFB50020FFF740FF294B83F3CF
:106A50000888294C294F636943F40073636100255A
:106A6000E02384F82230E57725766576A57684F8EC
:106A70002050636A43F4E023636284F82350FCF7F8
:106A800051F9FCF7E5FA4FF0FF33A362E362FCF73C
:106A9000A5FBFCF701FB1A481A4C00F0B3FB02F00F
:106AA00069FE0120FFF712FF0220FFF70FFF00F041
:106AB00091FD154B15495C61154B05930123CDE9FB
:106AC00003534FF480623B46CDE9015500952046C3
:106AD00000F020FB627B064622F00402204662732F
